:020000040800F2
:10000000D85C002045030008AF2100089D1C0008B3
:10001000AD210008A31900088D340008000000007D
:100020000000000000000000000000008D02000839
:10003000951A000800000000E102000811290008DC
:100040005F0300085F0300085F0300085F03000808
:100050005F0300085F0300085F0300085F030008F8
:100060005F0300085F0300085F0300085F030008E8
:100070005F0300085F0300085F0300085F030008D8
:100080005F0300085F0300085F0300085F030008C8
:100090005F0300085F0300085F0300085F030008B8
:1000A0005F0300085F0300085F030008592A000887
:1000B000192C0008792C0008092E00085F0300089D
:1000C0005F0300085F0300085F0300085F03000888
:1000D0005F030008CD3200085F0300085F030008DB
:1000E0005F0300085F0300085F0300085F03000868
:1000F0005F0300085F0300085F0300085F03000858
:100100005F0300085F030008912F00085F030008E9
:100110005F0300085F0300085F0300085F03000837
:100120005F0300085F0300085F0300085F03000827
:100130005F0300085F0300085F0300085F03000817
:100140005F0300085F0300085F0300085F03000807
:100150005F0300085F0300085F0300080133000825
:100160005F0300085F0300085F0300085F030008E7
:100170005F0300085F0300085F0300085F030008D7
:100180005F0300085F03000800F002F800F06FF85A
:100190000AA090E8000C82448344AAF10107DA45E2
:1001A00001D100F064F8AFF2090EBAE80F0013F0C5
:1001B000010F18BFFB1A43F00103184770900000AD
:1001C000909000000A444FF0000C10F8013B13F02F
:1001D000070408BF10F8014B1D1108BF10F8015BA0
:1001E000641E05D010F8016B641E01F8016BF9D193
:1001F00013F0080F1EBF10F8014BAD1C0C1B09D1EA
:100200006D1E58BF01F801CBFAD505E014F8016B5B
:1002100001F8016B6D1EF9D59142D6D370470000ED
:100220000023002400250026103A28BF78C1FBD8FF
:10023000520728BF30C148BF0B607047662906F0DF
:100240000287642900F0EA80732900F0EE84002020
:1002500070471FB506F0EDFE00F052FD04000020CF
:10026000002106F061F9E0601FBD10B510BD00F07F
:100270004FFE1146FFF7EDFF04F086F800F06DFE2B
:1002800003B4FFF7F2FF03BC03F011FD2A4B19681A
:100290000868B0E8F04F80F30988BFF36F8F4FF024
:1002A000000080F3118870470000000006480068D5
:1002B000006880F3088862B661B6BFF34F8FBFF362
:1002C0006F8F00DF00BF00BF08ED00E0DFF80C001B
:1002D000016841F470010160704700BF88ED00E0E3
:1002E000EFF30980BFF36F8F134B1A681EF0100FE6
:1002F00008BF20ED108A20E9F04F106008B44FF0DD
:10030000500080F31188BFF34F8FBFF36F8F05F05C
:10031000AFFA4FF0000080F3118808BC1968086834
:10032000B0E8F04F1EF0100F08BFB0EC108A80F359
:100330000988BFF36F8F704748000020EFF30580F6
:10034000704700000948804709480047FEE7FEE77C
:10035000FEE7FEE7FEE7FEE7FEE7FEE7FEE7FEE775
:1003600004480549054A064B70470000312900083A
:1003700089010008D8560020D85C0020D8580020F9
:10038000D8580020704700000FB4044910B503AAE4
:10039000029800F04FFC10BC5DF814FB3400002004
:1003A0000FB41CB5074B06AA7B446946009005981C
:1003B00000F011FC0020694600F020FC1CBC5DF838
:1003C00014FB00005108000070B50C460546012AD8
:1003D00005D02878800600D5EA69002302E00123D1
:1003E00005E05B1C934202D2E05C0028F9D1A869C9
:1003F000E618C01AA861286A184428622846AFF394
:10040000008004E0D5E9012114F8010B9047B442C3
:10041000F8D32846AFF3008070BD00002DE9F0410D
:100420000646002410687529314616A510D0AFF392
:100430000080002802DA404213A507E031688A07ED
:1004400001D512A502E0490704D511A5012401E058
:10045000AFF3008000210A2206F1240709E0B0FB77
:10046000F2FCB0FBF2F302FB1C003030785418466B
:10047000491C0028F3D123462A463046BDE8F04106
:1004800000F03BB9000000002D0000002B00000030
:10049000200000002DE9F0474FF0000A894604468D
:1004A000C0F820A02046E1688847002876D025289B
:1004B00006D0D4E901219047206A401C2062F1E770
:1004C000E168204600268847C4F81CA0054600279E
:1004D000C4F818A02A2D09D0284603F0E1FB38B350
:1004E00004EB8708303DC8F8185019E059F8041B90
:1004F000204604EB87029161E1688847012F054699
:1005000018D1E069002820DA26F020061DE0D8F88E
:10051000180000EB800005EB40003038C8F81800E8
:100520002046E1688847054603F0BAFB0028EED173
:10053000012F0AD02E2D08D12046E16888477F1C64
:100540000546022F46F02006C4DBA069002803DA26
:10055000404246F00106A061F00701D026F01006E7
:100560006C2D0AD0682D08D04C2D39D06A2D35D08D
:10057000742D35D07A2D33D016E0E1682F46204611
:100580008847B84205460AD16C2F27D04FF48060C7
:10059000E168064320468847054605E027E06C2FC2
:1005A0001AD04FF4807006430DB3A5F1410019280D
:1005B00002D8203546F400664A4629462046266081
:1005C0004E46FFF73BFE80B101280BD0F61D26F00A
:1005D000070000F1080965E74020E4E78020D7E73D
:1005E0000020D5E706F104095CE7284661E7206AA8
:1005F000BDE8F087032A40F2308010F0030C00F0D1
:10060000158011F8013BBCF1020F624498BF11F84C
:1006100001CB00F8013B38BF11F8013BA2F1040205
:1006200098BF00F801CB38BF00F8013B11F003037D
:1006300000F01283083AC0F0088051F8043B083AF1
:1006400051F804CBA0E80810F5E7121D5CBF51F883
:10065000043B40F8043BAFF30080D20724BF11F8FD
:10066000013B11F801CB48BF11F8012B24BF00F862
:10067000013B00F801CB48BF00F8012B704702F0A6
:10068000FF0343EA032242EA024200F019BB4FF0A3
:10069000000200B5134694469646203922BFA0E8D2
:1006A0000C50A0E80C50B1F12001BFF4F7AF0907DE
:1006B00028BFA0E80C5048BF0CC05DF804EB8900CF
:1006C00028BF40F8042B08BF704748BF20F8022B12
:1006D00011F0804F18BF00F8012B7047704770472A
:1006E0007047704710B500F00FFB006810BD10B5E3
:1006F000044600F009FB046010BD2DE9F0470D46EB
:1007000099469246044600F124080168880604D5FB
:10071000E06921F01001216000E00120A84201DD24
:10072000471B00E00027A1697A1902EB0900081AAB
:10073000A0612078C00602D42046AFF300800026D6
:1007400008E0D4E901211AF806009047206A401C0D
:10075000761C20624E45F4DB2078C0060AD5204680
:10076000AFF3008006E0D4E9012130209047206AF1
:10077000401C2062381EA7F10107F4DC07E0D4E931
:10078000012118F805009047206A401C2062281EAD
:10079000A5F10105F3DC2046AFF3008020780006C8
:1007A00002D50220BDE8F0870120FBE770472DE964
:1007B000FF4F0C461E464FF0FF378BB0D2E90001C9
:1007C000DDF860800A908A46C1F30A5505B93D46B6
:1007D000002108464FF00000BAF1000F00F440007D
:1007E00005DA00EB80004FF4400101EA50004FEAC7
:1007F0009059B9F1010F00DDB9460A9850EA4A0054
:100800000ED044F61050A5F2FF3545432F14B8F131
:10081000000F1ED07542291E1EDDC9F100021CE02A
:10082000B8F1010F4FF0000001D0302103E0F24396
:1008300005E02154401CB042FBDB30460022002181
:1008400021540B99C1F80880C1E900200FB0BDE820
:10085000F08FBD1B6D1CDEE74A4600DA694206A830
:1008600000F0DCFA06AB93E8070003AB83E807006F
:1008700050460A9900F0BAFB8DE80700A0F5005039
:100880001F3800900398002D0ADD42F21F014A46EE
:100890000844002303A90390684600F023FE09E002
:1008A000A0F500504A461F38002303A9039068466C
:1008B00000F02DFE8DE807000004000C03D04FF07F
:1008C000FF30410800E01046B8F1000F03D00022CD
:1008D000009215461EE0751E05D400F019FA30325C
:1008E00062556D1EF9D5B3460122084302D000229D
:1008F0007F1C04E02078302801D100227F1E002ACE
:10090000099784D01DE0112D07DA00F001FA30328A
:1009100062556D1C50EA0102F5D1084302D00098DF
:10092000C8B10EE00021681E05E0235C625C6354E0
:100930002254401E491C8142F7DBAB46A81B401ED7
:100940000990002004F80B000B98099AC0F8088061
:10095000C0E9002B7AE711264FF0000857E72DE990
:10096000F04F88460446D21D22F0070191B0D1E92C
:100970000001CDE90A0102F025FF02460B98C00FE5
:1009800001D02D2007E02068810701D52B2002E04F
:10099000202101EAC000032A099001D0072A05DBC3
:1009A00003464146204600F0F9F90BE12078800625
:1009B00001D5E06900E00620B8F1650F814606D058
:1009C000B8F1660F18D0B8F1670F70D131E0002090
:1009D000B9F1110F009001DB112301E009F10103CE
:1009E0000AAA01A90CA8FFF7E2FEDDE90C700026B7
:1009F00009F10105834647E001204B4600904FF086
:100A000000470AAA01A90CA8FFF7D1FEDDE90DB045
:100A10000C995D46002610B909F101000D18B9EBDB
:100A2000050003D4C0F1FF3609F10105A5EB09006B
:100A30002BE0B9F1010F01DA4FF001090020B9F103
:100A4000110F0090484601DD112300E003460AAA79
:100A500001A90CA8FFF7ABFEDDE90C704D4600269E
:100A60008346207800070AD4AB4500DA5D4601A82A
:100A7000012D04DD411911F8011C302907D04F4523
:100A800002DA17F1040F04DA012082460FE06D1E2E
:100A9000EEE7002F02DCED1B3E4403E0781CA84289
:100AA00000DD7D1CB81B00F1010A4FF000472078E3
:100AB000000703D4AA4501DB4FF0FF3A0021B7F14C
:100AC000004F0DF143088DF8431024D002202B2352
:100AD000002F01DA7F422D230A21021EA0F101001E
:100AE00000DC5FB197FBF1FC97FBF1F201FB1C7C92
:100AF00017460CF1300C08F801CDEEE7A8F1010023
:100B000003702188090501D5452100E06521A0F188
:100B1000010800F8011C09980FA9A1EB0807FF1DA7
:100B200000B10120411901EBEA70A1693844081AAB
:100B3000401EA0612078C00602D42046AFF300809A
:100B4000099828B1D4E901219047206A401C20620D
:100B50002078C00622D52046AFF300801EE0002E8C
:100B600004DBB34502DD01A8805D00E03020D4E95C
:100B700001219047206A401C2062761CAAF10100E6
:100B80005FEA000A0AD100F0BBF8C0680168405C67
:100B9000D4E901219047206A401C2062281EA5F15B
:100BA0000105DCDC07E0D4E9012118F8010B9047CE
:100BB000206A401C2062381EA7F10107F3DC2046A2
:100BC000AFF30080032011B041E6000001694A1C28
:100BD00002610878704700B58FB0CDE9013100217E
:100BE000059105497944CDE9031011466846FFF7A0
:100BF00051FC0FB000BD0000E5FFFFFF0A6802F8DE
:100C0000010B0A60704710B5436913B1AFF3008060
:100C100001E0FFF7D9FB012010BD127800F124019B
:100C20000A7000224A700122EDE711684FF0FF328E
:100C3000E9E70000074B70B50D467B44FFF7CBFF9B
:100C40000446284600F05CF910B14FF0FF3070BD4B
:100C5000204670BDE736000010B5203AC0F00B808A
:100C6000B1E81850203AA0E81850B1E81850A0E8B0
:100C70001850BFF4F5AF5FEA027C24BFB1E818500A
:100C8000A0E8185044BF18C918C0BDE810405FEA7A
:100C9000827C24BF51F8043B40F8043B08BF7047F6
:100CA000D20728BF31F8023B48BF11F8012B28BFFB
:100CB00020F8023B48BF00F8012B70474FF00002BC
:100CC0000429C0F0128010F0030C3FF4E2ACCCF128
:100CD000040CBCF1020F18BF00F8012BA8BF20F8CC
:100CE000022BA1EB0C01FFF7D4BC5FEAC17C24BF4F
:100CF00000F8012B00F8012B48BF00F8012B7047CA
:100D000000487047945600200048704774560020F1
:100D100030B5B0F10A024FEA900E71F100034EEACD
:100D2000817EB0EB0E0061EB91014FEA101E4EEA9E
:100D3000017E10EB0E0041EB11114FEA102E4EEA2E
:100D4000016E10EB0E0041EB11214FEA104E4EEAFE
:100D5000014E10EB0E0041EB1141401841F1000132
:100D60004FEAD00040EA41704FEAD10110EB800514
:100D70004FEA810444EA907444EB01046D1944EB9A
:100D80000404521BA3414FF0000348BF0A3200D5B0
:100D900030BD401C41F1000130BD00002DE9F041A3
:100DA0001F46044603260168072A01F4006004DB9D
:100DB00008B116A505E016A503E008B115A500E0E9
:100DC00015A521F010002060A069C01EA0610FB120
:100DD000401EA0612046AFF300804FB1D4E901214D
:100DE00038469047206A401C2062C01C206206E002
:100DF000206AFAE7D4E9012115F8010B9047761E25
:100E0000F8D22046AFF30080BDE8F0814E414E009D
:100E10006E616E00494E4600696E66002DE9F0472E
:100E2000814616468AB0354878440DC88DE80D00D5
:100E300032487844801C03AC0DC884E80D0041F6AC
:100E40009B300844372190FBF1F290FBF1F5A5F1BE
:100E5000800501FB12041B3C02D56442012000E026
:100E60000020DFF898A080460027FA44AAF1BE0AC5
:100E70000EE0E0070AD03246684607EB470101233F
:100E80000AEB810100F043FB8DE8070064107F1C32
:100E9000002CEED1194F7F44AE3F19E0E80715D082
:100EA00007EB04100DF1180A90E80E008AE80E0016
:100EB000C068F04201D1981908903246012306A972
:100EC00003A800F024FB03AB83E807006D10641C4B
:100ED000002DE3D14FF0010332466946B8F1000F0F
:100EE00003A802D000F0FEFA01E000F010FBC9E90F
:100EF0000001C9F808200AB0BDE8F087E8830000C7
:100F0000007B00F080007047004870477456002056
:100F10007546FFF7F9FFAE4605006946534620F0D7
:100F20000700854618B020B5FFF71AFABDE8204043
:100F30004FF000064FF000074FF000084FF0000B95
:100F400021F00701AC46ACE8C009ACE8C009ACE848
:100F5000C009ACE8C0098D46704710B50446AFF330
:100F600000802046BDE81040FFF78AB94FF0013CF1
:100F700050F8042B51F8043B9A4221D1A2EB0C0308
:100F8000934313EACC1317D150F8042B51F8043BC8
:100F90009A4215D1A2EB0C03934313EACC130BD165
:100FA00050F8042B51F8043B9A4209D1A2EB0C03F0
:100FB000934313EACC13DBD04FF00000704700BF1F
:100FC000D01A01BAB1FA81F101F0180122FA01F048
:100FD000CB40C1F12001DBB2C0B2C01A2CFA01F340
:100FE000D11A914311EAC311E6D170475FEA400C70
:100FF00008BF91F0000F4FEA8C234FEAC12243EA69
:1010000051514FEA1C5018BF00F5F0404FEA300034
:1010100018BF41F000415FEA6C5C00F02980BCF130
:10102000FF3F08BF40F080407047130C06BF12041A
:101030004FF0100C4FF0000C130E04BF12020CF115
:10104000080C130F04BF12010CF1040C930F04BF22
:1010500092000CF1020CD30F04BF52000CF1010CF2
:1010600011464FF00002A0F11F00A0EB0C007047EA
:1010700011F0004F08BF704731F000413FF4D5AF89
:101080000B0C06BF09044FF0100C4FF0000C0B0EB8
:1010900004BF09020CF1080C0B0F04BF09010CF18D
:1010A000040C8B0F04BF89000CF1020CCB0F04BFA2
:1010B00049000CF1010CCCF12003A0EB0C0022FA4A
:1010C00003F302FA0CF241EA030100F10100704758
:1010D00020F07F4C80EA030023F07F47ACEB07034E
:1010E00003F57C5300F0004003F1FF032DE9804934
:1010F0004FEA154B09B44FEA144325EA0B4E24EA94
:1011000003480FF2042606EB132749083E785FEAEE
:10111000320203FB0667C7F5000707FB06F64FEA36
:1011200054374FEAD64606F1020607FB066CCCF1AF
:10113000005C4FEA1C472CEA074C07FB06F40CFB4B
:1011400006F504EB15464FEA961634BF00204FF023
:1011500000404FEAD13706FB07FC4FEA1C4C0CFB62
:101160000BF7D21B03FB0CF761EB07010CFB0EF72F
:10117000B0EB074072EB17420CFB08F734BFA2EB51
:101180000742B2EB074261EB17414FEA0C444FEACA
:10119000910706FB07FC4FEA1C4C0CFB0BF7B0EB6E
:1011A000C74072EB573203FB0CF734BFA2EBC742C8
:1011B000B2EBC74261EB57310CFB0EF7B0EBC70047
:1011C00072EB57720CFB08F734BFA2EBC702B2EB0D
:1011D000C70261EB5771039F4FEA816141EA9211A7
:1011E00004EBCC044FEAD1374FEA826206FB07FCDE
:1011F00042EA90124FEA80604FEA1C4C0CFB0BF75E
:10120000D21B03FB0CF761EB07010CFB0EF7B0EBF5
:10121000074072EB17420CFB08F734BFA2EB074202
:10122000B2EB074261EB17414FEA8C554FEA910749
:1012300004EB9C2406FB07FC4FEA1C4C0CFB0BF751
:10124000B0EBC74072EB573203FB0CF734BFA2EB95
:10125000C742B2EBC74261EB57310CFB0EF7B0EB64
:10126000C70072EB57720CFB08F734BFA2EBC70242
:10127000B2EBC70261EB577115EB4C254FEA816168
:1012800041EA92114FEA82624FEAD13742EA901264
:1012900006FB07FC44F100044FEA80604FEA1C4C57
:1012A0000CFB0BF7D21B03FB0CF761EB07010CFBEC
:1012B0000EF7B0EB074072EB17420CFB08F734BF98
:1012C000A2EB0742B2EB074261EB174115EB1C158D
:1012D0004FEA813141EA92414FEA823242EA90423A
:1012E0004FEA80304FEA0C7644F1000448EA0343A9
:1012F0004EEA0B484FF0000EB2EB080C71EB0307FF
:1013000024BF624639464EEB0E0E4FF0000B00181C
:10131000524149414BEB0B0BB2EB080C71EB03074D
:101320007BF1000B24BF624639464EEB0E0E4FF0A8
:10133000000B0018524149414BEB0B0BB2EB080C70
:1013400071EB03077BF1000B24BF624639464EEB7D
:101350000E0E51EA020718BF46F0010616EB0E7694
:1013600055F1000254F1000103D5BDE88901BDE843
:101370000088BDE88901BDE80048B619524141EB3B
:101380000101A3F10103704780807F7E7D7C7B7A21
:101390007978777676757473727171706F6E6E6D21
:1013A0006C6C6B6A6A6968686766666564646363C7
:1013B00062616160605F5F5E5E5D5D5C5C5B5B5A4D
:1013C0005A595958585757565655555554545353BA
:1013D00052525251515050504F4F4F4E4E4D4D4D15
:1013E0004C4C4C4B4B4B4A4A4A4949494848484760
:1013F000474747464646454545444444444343439E
:101400004342424242414141002B9C4630D4770046
:101410002BD01CB54FEA370703B44FF010004FF044
:101420001001BAF1000F06D0BCF1000FDCBF40F094
:10143000080040F008014FF000000FBCBDE810406C
:101440000BF1010BBBF1010F08BF5FEA170722BFC9
:1014500012F1010211F101014FF0004143F10003CB
:1014600000F0004043EA00007047F9D35708D0E786
:1014700046EA064613F1400F4FEA16461FDD13F108
:10148000200FDFBF16430A46002120335B42BED047
:10149000C3F1200746EA064602FA07F74FEA164666
:1014A00046EA0706C3F1200722FA03F201FA07F71A
:1014B00021FA03F14FF0000342EA0702A7E746EAE8
:1014C000020646EA06464FEA164646EA0106BCBF51
:1014D00046EA0646360C4FF000034FF000024FF08C
:1014E000000194E72DE9804C9A46934670B491E848
:1014F000380007C831EA400C48BF34EA430C03D532
:10150000FFF7E6FDFFF780FFF0BCBDE8008C2DE99A
:10151000804C9A46934670B491E8380007C810F0A2
:10152000804F08BF13F0804F03D100F005F8FFF79C
:101530006BFFF0BCBDE8008C20F07F4780EA030021
:1015400023F07F4C07EB0C03A3F57C5300F0004025
:10155000A3F1FE0392F0000F00F0B38095F0000FAE
:1015600000F077802DE901494FEA11404FEA144617
:1015700021EA004800FB06FC24EA064708FB06F6C1
:1015800007FB08F800FB07F718EB06484CEB164C76
:101590004FEA124B18EB07484FEA15464CEB174041
:1015A00022EA0B4E0BFB06FC25EA06470EFB06F66D
:1015B00007FB0EFE0BFB07F71EEB064E4CEB164C23
:1015C0004FF000061EEB074E4CEB174B18EB0B08C9
:1015D00040F1000018EB0E0B58EB000840F1000042
:1015E0008F1A4FF000013CBFC943661B14BFB5EB17
:1015F000040C00213CBFC943F61B4FEA17444EEAD6
:101600008E0E27EA04454FEA1C4704FB07622CEACA
:10161000074C05FB07F70CFB05F604FB0CFC16EB6F
:10162000074642EB174216EB0C4642EB1C421BEB03
:10163000060658EB0202414146EA9E0601D5BDE886
:101640000189B619524141EB0101A3F10103BDE843
:1016500001894FEA14454FEA114724EA054621EA79
:10166000074C05FB07F406FB07F70CFB06F105FB2F
:101670000CFC11EB074144EB17444FEA124711EB06
:101680000C4144EB1C4422EA074C05FB07F206FB25
:1016900007F70CFB06F605FB0CFC16EB074642EBC6
:1016A000174216EB0C4642EB1C456A1854F1000138
:1016B00048BF7047B619524141EB0101A3F1010344
:1016C000704795F0000F37D04FEA11424FEA1447A8
:1016D00021EA024624EA074C02FB07F106FB07F762
:1016E0000CFB06F402FB0CFC14EB074441EB174126
:1016F0004FEA154714EB0C4441EB1C4125EA074C1B
:1017000002FB07F506FB07F70CFB06F602FB0CFCD9
:1017100016EB074645EB174516EB0C4645EB1C420E
:10172000121951F1000148BF7047B619524141EBFF
:101730000101A3F1010370474FEA14454FEA114735
:1017400024EA054621EA074C05FB07F106FB07F7EB
:101750000CFB06F24FF0000605FB0CFC12EB0742F7
:1017600041EB174112EB0C4251EB1C4148BF704753
:10177000921841EB0101A3F10103704738B5002431
:1017800090228DF8002001228DF801208DF80210A2
:101790008DF803000948026000F012F86D46285DDC
:1017A00000F03EF81E2000F0A1F8641CE4B2042C06
:1017B000F5D3BDE8384000F01DB8000098824042E3
:1017C00070B50B4C0125656040F23F26304600F0B5
:1017D0008DF82560304600F089F8002565603046B8
:1017E00000F084F825603046BDE8704000F07EB817
:1017F0009882404270B5094C0020606040F23F265C
:10180000304600F073F801252560304600F06EF890
:1018100065603046BDE8704000F068B8988240428C
:101820002DE9F0410546144E4FF00008C6F89882A5
:1018300000240127280602D5C6F89C7201E0C6F8EC
:101840009C82C6F898721E2000F050F8C6F8988264
:101850001E2000F04BF86806050E641CE4B2082C4C
:10186000E8D3C6F89C72C6F898721E2000F03EF8C5
:10187000C6F89882BDE8F081008040422DE9F04131
:1018800000240025184E0127A046C6F898721E2095
:1018900000F02CF86006040ED6F81C0208B144F0E3
:1018A0000104C6F898821E2000F020F86D1CEDB2ED
:1018B000082DEAD3C6F898821E2000F017F8C6F863
:1018C0009C821E2000F012F8C6F898721E2000F0CC
:1018D0000DF8C6F898821E2000F008F8C6F89C7231
:1018E0002046BDE8F081000000804042401E000418
:1018F000000CFBD1704710B54FF4A06000F08CFCD9
:10190000A82002F0AFFC00F011FF4FF4E13003F02B
:1019100027FB02F077FA02F0CBF902F0E9F902F0C6
:101920005DFC04F0F5FD03F0CFFA02F0ADFBBDE87D
:10193000104002F0F3BB10B504466069002807DDD3
:1019400000EBD070401000F02DF8002001F006FEF2
:101950006069002808DA404200EBD070401000F0C7
:1019600021F8012001F0FAFD322003F0EDFCA0691E
:10197000002807DD00EBD070401000F013F80020C5
:1019800001F028FEA06900280ADA404200EBD0707E
:10199000401000F007F8BDE81040012001F01ABE29
:1019A00010BDFEE770B52DED048B0024B7EE009A54
:1019B000324D85ED009A9FED320A85ED010A9FEDCB
:1019C000310A85ED020AB1EE000A85ED030AB6EE92
:1019D000008ADFED2D8A00EE100AF0EE080A2B488F
:1019E000B8EE400A30EE600ABCEEC00A80ED090A8B
:1019F00037E095ED030AF1EE400A00EE104AB8EE2A
:101A0000400A30EE480A60EE800A80EE880A10EE46
:101A1000100A05F09DFA41EC100B01F0EDFE51ECBF
:101A2000100B04F097FD00EE100A30EE090A17487B
:101A30003830C8EE800A95ED010A00EB840030EEE4
:101A4000800A80ED000ADFED120A104980EE801A4C
:101A50000A31BCEEC10A10EE100A21F81400641C11
:101A6000E4B295ED000ABCEEC00A10EE100AC0B256
:101A7000A042BED8BDEC048B70BD000044560020CF
:101A80000000FA4300C05A4500803B45DC000020BE
:101A90000024F44970470000DFF84CA1002640F212
:101AA0006C7B4FF4FA79DFF84481AAF11005012725
:101AB00092E02E7020E0B0F5FA6F04D16189914276
:101AC00001D12F7018E0584504D36389A3F5A061B4
:101AD000DC3905D0A189914205D16E70EE600BE032
:101AE0000221297008E0A1F5A062DC3A0CD059452A
:101AF00002D3032129706F60584508D36089584587
:101B000005D30420287010E06F70EE60F4E73848C9
:101B1000006803F039FE64220021012001F010FE6C
:101B200000221146104600F057FD2878052850D2B3
:101B3000DFE800F0030C1E284B00CAF80060CAF86A
:101B40000460CAF80860CAF80C6042E0AE606878C9
:101B500020B1012802D1322003F0F6FB6288A1886F
:101B6000E08801F095FC9AE80F0000F0E9FD30E014
:101B7000A86848BB686838BBAF60D8F8040000F0BC
:101B800065FD26E0E868F8B998F80000401E00EB13
:101B9000400101EBC000D8F8041001EB8000FFF712
:101BA000CAFE484603F0D0FB002408E0C8F80C4009
:101BB000204601F099FC484603F0C6FB641C98F8E7
:101BC00000008442F2DBEF6003E00948006803F0A4
:101BD0000FFD052003F0B8FB064C4FF47A72208805
:101BE00090427FF468AF64E764560020180100203B
:101BF00018000020345600202DE9F0410022012772
:101C00004FF0030C07FA02F50B682B40AB422CD1C6
:101C1000066853000CFA03F4A64306600E79D0F868
:101C200000809E4046EA080606600E79012E01D02B
:101C3000022E12D18668A64386604E79D0F80880BD
:101C40009E4046EA080686604668AE4346604568A0
:101C50008E799640B6B235434560C568A543C560E8
:101C6000CC799C40C3681C43C460521C102AC9D361
:101C7000BDE8F08110B54B07DB0E9A40C90800EBB8
:101C80008100016A0F249C40A1430162016A114353
:101C9000016210BD4183704701837047FEE7000079
:101CA0002DE9F04104460D46284604F0C0FE41EC03
:101CB000100B53EC102B9FED410B51EC100B04F06B
:101CC0002FFD9FED401B53EC112B04F017FF9FEDF0
:101CD0003F1B53EC112B04F011FF04F03BFC3D4F74
:101CE00000EE900AC7ED040A00EE104ADFED3A1A42
:101CF000B8EEC01A97ED020AB4EEC01AF1EE10FA6F
:101D000025DD01EE104AB8EEC11A31EE400A20EE90
:101D1000200AC0EE210ABDEEE00A10EE106A2A4643
:101D20000A21012001F00CFD32220A21002000F0DE
:101D300053FC304603F008FB00221146012001F05D
:101D4000FFFC00221146104600F046FC2DE001EE9B
:101D5000104AB8EEC11AB4EEC01AF1EE10FA24D24D
:101D600001EE104AB8EEC11A30EE410A20EE200A08
:101D7000C0EE210ABDEEE00A10EE106A2A460A21E2
:101D8000002001F0DDFC32220A21002000F024FCBA
:101D9000304603F0D9FA00221146104601F0D0FC7B
:101DA00000221146104600F017FC00EE104AB8EE73
:101DB000C00A87ED020ABDE8F0810000555555556F
:101DC000555505400000000000004E400000000096
:101DD00000408F40180100200000A0420346002070
:101DE0009A8A1B8B1B041A4322F07F42914300D135
:101DF00001207047002904D0018841F001010180D1
:101E00007047018821F001010180704710B5154924
:101E100088420AD101214C05204600F071FB204682
:101E2000BDE81040002100F06BBB0F4988420AD189
:101E300001218C05204600F063FB2046BDE81040E0
:101E4000002100F05DBB094988420AD10121CC057F
:101E5000204600F055FB2046BDE81040002100F070
:101E60004FBB10BD0054004000580040005C0040D3
:101E7000002904D0018841F48071018070470188F5
:101E800021F4807101807047002904D0018841F459
:101E9000007101807047018821F400710180704752
:101EA0000CB50246002000920A0F019221F07F41FA
:101EB000019A002A03D0009A1432009203E0090C20
:101EC000009A18320092009A12680A4200D001204B
:101ED0000CBD00007FB504460D46A08820F03F06EB
:101EE000684600F029FB02982749B0FBF1F189B25E
:101EF0000E43A680228822F001022280234B2A680A
:101F00009A4209D85200B0FBF2F080B2042800D205
:101F10000420491C218423E0EB88A3F53F46FF3EC3
:101F20000BD002EBC20303EB0212B0FBF2F080B263
:101F300040F48040020506D007E002EB4202B0FB0D
:101F4000F2F080B2F6E740F0010040F400404FF4B8
:101F5000967251434FF47A72B1FBF2F1491C21841D
:101F6000A083208840F00100208020884FF6F531C2
:101F70000840A9886A89114301432180A8892989D9
:101F8000084320817FBD000040420F00A086010071
:101F9000002A02D041F0010101E001F0FE010182BE
:101FA00070470182704700002DE9F04104460E465B
:101FB0001D4D4FF4003739462846FFF771FF0028C2
:101FC000F9D101212846FFF753FF184F284639461B
:101FD000FFF704FF0028F9D0002278212846FFF7F8
:101FE000D7FF134F28463946FFF7F8FE0028F9D0EF
:101FF00021462846FFF7D5FF0D4CA41C2146284654
:10200000FFF7ECFE0028F9D031462846FFF7C9FF5C
:1020100021462846FFF7E2FE0028F9D02846BDE811
:10202000F0410121FFF730BF0054004001000300E0
:10203000820007002DED048BB2B0642119A8FEF7D1
:1020400026FB64216846FEF722FB002003F09CFB80
:102050004FF400464FF6FF749FED418B9FED429B7E
:10206000434D4FF07E574FF4FA780A221146002074
:1020700001F066FB8221EB2002F068F9A0F5004137
:10208000B14201D2201A02E0A04200D3002004F0A5
:10209000E5FC53EC182B04F031FD53EC192B04F044
:1020A0003FFB04F057FA2860B84224DB14220A21CF
:1020B000002000F091FA286804F04AFF41EC100B70
:1020C0002CA153EC102B6846FEF76AF910236A46E0
:1020D0003021002000F0E1F900221146104601F005
:1020E0002FFB4FF4FA6003F02FF90A22114600206B
:1020F00001F026FB15E05A220A21002000F06CFABC
:10210000286804F025FF41EC100B1AA153EC102BAA
:102110006846FEF745F910236A463021002000F09A
:10212000BCF900210C2315A2084600F09FF90021FC
:102130000C2316A2084600F099F90C2317A21021CF
:10214000002000F093F9102317A219463C2000F05C
:10215000A4F9404602F0A0F8642003F0F5F884E703
:10216000FCA9F1D24D62204000000000E0FFEF40EA
:10217000E4020020463A252E32660000B9E3B6ABF1
:10218000B9A4D2B5B4F3D1A700000000C3EECAD6FB
:10219000D6C7C1AACDC5B6D300000000B5B1C7B03F
:1021A000D7AACBD9CEAA00003A000000FEE77047BC
:1021B00030B50F23C27801250178002A1FD0154AB7
:1021C000126802F4E062C2F5E062C2F30722C2F1D3
:1021D0000404D3404278A24084781C401443220176
:1021E00001F1E02181F80024007800F01F018D400A
:1021F0004009800000F1E020C0F8005130BD01F03E
:102200001F0085404809800000F1E020C0F880519F
:1022100030BD00000CED00E00249084302490860AF
:10222000704700000000FA050CED00E070B50025D5
:1022300005F1B000C0B200F013F8002000F010F873
:10224000102000F00DF80024002000F00DF8641CB0
:10225000E4B2802CF8D36D1CEDB2082DE8D370BD2C
:1022600001460020FFF7A0BE01464020FFF79CBEBC
:1022700010B50446B031C8B2FFF7F2FF102040EAB3
:102280001410FFF7EDFF04F00F00BDE8104040F020
:102290000100FFF7E5BF00002DE9F04F81462DED6D
:1022A000048B81B0884616461D460024B9F17F0F85
:1022B00004D9A14608F1020808F0FF0800272846C3
:1022C00004F0CCFB9FED2B9B8246203E00913846CC
:1022D00004F0C4FB41EC180B009953EC192B41ECB2
:1022E00010AB51EC100B04F009FC53EC182B04F06C
:1022F000C9FB24D907EBD800C1B24846FFF7B8FFA5
:102300004FF0000B14E00C2D1ED0102D28D0182DEE
:1023100015D11A4906EBC60001EB80012046641C6A
:10232000A4B2085CFFF7A0FF0BF1010B0BF0FF0B51
:10233000BBEB550FE7D37F1CFFB2082FC7D301B00B
:10234000BDEC048BBDE8F08F0D4906EB460001EBB8
:1023500080012046641CA4B2085CFFF785FFE3E718
:10236000084800EB06112046641CA4B2085CFFF785
:102370007BFFD9E7000000000000C03FE2830008B7
:102380007E790008F27D00082DE9FF4F89462DED8A
:10239000048B81B01E460024002513782F49C5EB1D
:1023A000C50000EB80000F5CBB4252D100EB01087E
:1023B000577898F8010087424BD10027304604F047
:1023C0004DFB9FED279B82460091384604F046FB6B
:1023D00041EC180B009953EC192B41EC10AB51EC6C
:1023E000100B04F08BFB53EC182B04F04BFB1DD9A6
:1023F00007EBD900C1B20598FFF73AFF4FF0000B89
:102400000EE00C2E17D0102E10D120464044641C34
:10241000A4B2C078FFF728FF0BF1010B0BF0FF0B04
:10242000B345EED37F1CFFB2022FCED301B0BDEC7B
:10243000048BBDE8FF8F05EBC5000B4900EB4000A6
:10244000014420460844641CA4B2C078FFF70CFF86
:10245000E2E76D1CEDB2642DA1D3E7E74A700008F6
:10246000000000000000C03F7C7500082DE9F0412D
:102470000646884615461F46002409E03019C0B2BA
:102480003B462A464146FFF77FFFE01984B2AD1C68
:1024900028780028F2D1BDE8F0812DE9F041054609
:1024A000884616461F46002409E03B46414628461A
:1024B000FFF7F2FE641CE4B205EB5700C5B2325DD3
:1024C000002AF2D1BDE8F081054A002903D0116845
:1024D000014311607047116881431160704700002B
:1024E00030380240054A002903D0116801431160C9
:1024F0007047116881431160704700004038024006
:10250000054A002903D01168014311607047116822
:10251000814311607047000020380240054A0029BD
:1025200003D0116801431160704711688143116045
:10253000704700004438024070B5244B196801F020
:102540000C01234C00291ED0661004291DD0082937
:102550001DD00460196801F0F00109091D4A545C9E
:102560000168E14041601C6804F4E054A40A145D71
:1025700021FA04F484601B6803F460435B0BD25CB3
:10258000D140C16070BD0460E4E70660E2E70F4A35
:10259000121F1168C1F38055116801F03F0135B178
:1025A000B6FBF1F11468C4F38814614305E0B4FB91
:1025B000F1F11468C4F3881461431268C2F3014254
:1025C000521C5200B1FBF2F10160C3E7083802402F
:1025D0000024F4003800002070B50C461546084B66
:1025E000012807D008211846FFF756FB0548C4808C
:1025F000058170BD08211846FFF74CFBF6E7000087
:1026000000000240DC00002038B5002000900E4998
:1026100001200860FFF7D4F89020FFF701F90020AF
:10262000FFF7FEF8FFF7E6F8FFF7CAF89120FFF78B
:10263000F7F8FFF723F90446FFF720F90546FFF7FF
:10264000D9F845EA042038BD98824042F0B53249B5
:10265000324A0B68117801EB410404EBC10100EB35
:1026600081014B612E4C2368002B00DC5B4211780A
:1026700001EB410505EBC10100EB81010B6229492A
:102680000B68117801EB410505EBC10100EB8101FD
:102690008B61254D2B68002B00DC5B42117801EB30
:1026A000410606EBC10100EB81018B622168012626
:1026B0000023002909DD117801EB410707EBC10177
:1026C00000EB8101CE61236009E008DA117801EBAB
:1026D000410707EBC10100EB8101CB612360296851
:1026E000002909DD117801EB410404EBC10100EB85
:1026F000810046622B6009E008DA117801EB4104A1
:1027000004EBC10100EB810043622B60107800F103
:1027100001001070F0BD0000F00000201801002042
:10272000E8000020F4000020EC0000200348002115
:10273000017041608160C160704700005456002004
:1027400070B506460C461546002E02DD012000F04D
:1027500005FF002E02DA002000F000FF002C02DD51
:10276000012000F037FF002C02DA002000F032FFD9
:10277000002D0CDD64220A21012000F0E1FF32204F
:1027800002F0E2FD00221146012000F0D9FF002DE9
:102790000EDA64220A21002000F0D2FF322002F07B
:1027A000D3FDBDE8704000221146104600F0C8BFBE
:1027B00070BD00000CB50022019200922749086804
:1027C00040F4803008604FF4A043086800F4003003
:1027D00000900198401C0190009810B9019898420F
:1027E000F3D10868800302D50120009000E0009238
:1027F0000098012831D119484030026842F08052D7
:1028000002601748026842F44042026013480830F0
:1028100002680260026842F400420260026842F408
:10282000A0520260021F0F4B13600A6842F08072D0
:102830000A600A689201FCD50B4A40F205711160EA
:10284000016821F003010160016841F002010160AB
:102850000168C1F381010229FAD10CBD00380240A0
:102860000070004008544007003C02409AB06421C8
:1028700001A8FDF70CFF1C4C1C4D1DA1226801A8EE
:10288000521CFDF78DFD0021102301AA0846FFF719
:1028900004FE206800EB400101EBC00014A155F8D4
:1028A000202001A8FDF77CFD102301AA1946002075
:1028B000FFF7F3FD206800EB400101EBC00005EBE2
:1028C00080000BA1826801A8FDF76AFD102301AA10
:1028D00020210020FFF7E1FD052001F0DDFC0A20AA
:1028E00002F032FDC9E70000240100202C01002085
:1028F000256400004FF0E021042804D0086920F08E
:10290000040008617047086940F0040008617047DE
:1029100010B503F0B9FB012803D0BDE8104003F067
:1029200077B802484168491C416010BD1C00002076
:1029300010B51248016841F4700101601048016847
:1029400041F0010101600E4A002108321160026865
:102950000C4B1A400260031D0B4A1A60026822F4F5
:102960008022026006480C300160FFF723FF034914
:102970004FF000608039086010BD000088ED00E075
:1029800000380240FFFFF6FE1030002470B5048CC2
:1029900024F001040484058B048C25F0F3054FF624
:1029A000FF7606EA031313432B4324F00A020A437B
:1029B00042F001010383018470BD70B5048C24F0E2
:1029C00010040484058B068C4FF6FF7404EA011191
:1029D00025F4734504EA03332B4304EA02221A4325
:1029E00026F0A0030B4343F010010283018470BD65
:1029F000F0B5048C24F480740484868B058C4FF627
:102A0000FF7707EA012426F0F30607EA03111143D2
:102A1000314325F42062224342F480728183028490
:102A2000F0BD70B5048C24F480540484858B068C2E
:102A30004FF6FF7404EA013125F4734504EA0222DB
:102A40002A4304EA0333134326F420420A4342F4A0
:102A500080518383018470BD2DE9F047DFF854A1D4
:102A6000BAF81000DFF85091544D554C80074FF6DE
:102A7000FF764FF4FA684FF47A7722D5B11E5046AC
:102A8000AAF810104FF6FF510182D9F810108905ED
:102A900003D500F0DAFA288013E000F0D6FA81B20C
:102AA00069802888814202D3081AE08103E0301A45
:102AB0000844401CE081E089A0F5FA70404500D947
:102AC000E781BAF81000400723D54FF6FB71504656
:102AD000AAF810104FF6FF310182D9F8101009053D
:102AE00003D500F0B4FAA88013E000F0B0FA81B288
:102AF000E980A888814202D3081AA08103E0301A35
:102B00000844401CA081A089A0F5FA70404500D976
:102B1000A781BAF81000000723D54FF6F771504689
:102B2000AAF810104FF2FF710182D9F81010890431
:102B300003D500F08EFA288113E000F08AFA81B202
:102B400069812889814202D3081A608103E0301A22
:102B50000844401C60816089A0F5FA70404500D9A6
:102B60006781BAF810105046C9060CD54FF6EF71C0
:102B700001824EF6FF710182D9F81010490404D584
:102B800000F069FAA881BDE8F08700F064FA80B22D
:102B9000E881A989884202D3401A208103E0711A92
:102BA0000844401C20812089A0F5FA704045EAD9EC
:102BB0002781E8E70000014000100240BC0000202F
:102BC000345600201FB5401EADF80400491E029186
:102BD0000020ADF80C00ADF806004FF0804401A9CC
:102BE000204600F035FB01221146204600F072FA23
:102BF0001C218DF8001001218DF8011003228DF8A1
:102C000002208DF803106846FFF7D2FA0121204612
:102C100000F00FFA1FBD000070B501218D07284696
:102C200000F01BFA01281DD1114CE16A491CE16238
:102C3000E088104A814205D24FF004011046FFF7A8
:102C40002BF805E004D94FF004011046FFF722F8F5
:102C500020894FF47A71B1FBF0F0E16A884201D229
:102C60000020E0622846BDE87040012100F0DEB996
:102C7000DC000020000002402DE9F04100245F4FFD
:102C80000221384600F0E9F95D4D002840D00221CC
:102C9000384600F0CBF9384600F0D7F984B2686BBB
:102CA000401C6863574A1168002907DDE96801F193
:102CB0000101E960696901F10101696107DAE96807
:102CC000A1F10101E9606969A1F10101696151683E
:102CD000002907DD296901F101012961A96901F1D3
:102CE0000101A96107DA2969A1F101012961A96935
:102CF000A1F10101A961C0075DD1414A29780026EF
:102D00000A320323012904D0022922D0032931D019
:102D100051E0E969491CE96171B1491E32F81100BD
:102D2000400800EE100AB8EE400A85ED0C0A686A09
:102D300060B1022028700AE032F8020C400800EE70
:102D4000100AB8EE400A85ED0C0A34E02B70EE61F3
:102D500031E0E869401CE8611188490800EE101A6A
:102D6000B8EE400A85ED0C0A696A884223D12B70BF
:102D7000EE6120E0E969491CE96102290BD2C1F149
:102D8000010032F81000400800EE100AB8EE400AC8
:102D900085ED0C0A0FE000220221384600F09AF976
:102DA00000220421384600F095F90021384600F051
:102DB00040F9EE612E7000EE104AD5ED0C0AB8EE27
:102DC000400A30EE200ABCEEC00A10EE100A81B2B2
:102DD000384600F011FA00EE104AD5ED0C0A3846DC
:102DE000B8EE400ABDE8F04130EE200ABCEEC00A61
:102DF00010EE101A89B200F001BA00000004004081
:102E0000DC000020645600202DE9F05FDFF86C91B3
:102E1000B9F800005A4EDFF86CB15B4D5B4C80078F
:102E200040F2DC5A4FF6FF774FF4FA6824D5B81E0B
:102E3000A9F800004FF6FF50A9F800003068C00460
:102E400004D5584600F001F9288215E0584600F0F4
:102E5000FCF880B26882298A884202D3401A208016
:102E600003E0791A0844401C20802088A0F5FA70FD
:102E7000404501D9A4F800A0B9F80000400725D5C5
:102E80004FF6FB70A9F800004FF6FF30A9F80000DC
:102E90003068800404D5584600F0D9F8A88215E0BF
:102EA000584600F0D4F880B2E882A98A884202D35A
:102EB000401A608003E0791A0844401C60806088F2
:102EC000A0F5FA70404501D9A4F802A0B9F80000B5
:102ED000000726D54FF6F770A9F800004FF2FF70F3
:102EE000A9F800003068400404D5584600F0B1F855
:102EF000288316E0584600F0ACF880B26883298B2E
:102F0000884202D3401AA08003E0791A0844401C8A
:102F1000A080A088A0F5FA70404502D94FF47A70DD
:102F2000A080B9F80000C0060ED54FF6EF70A9F8E2
:102F300000004EF6FF70A9F800003068000405D5C7
:102F4000584600F088F8A883BDE8F09F584600F086
:102F500082F880B2E883A98B884202D3401AE080CD
:102F600003E0791A0844401CE080E088A0F5FA707C
:102F70004045E9D9A4F806A0E6E7000010080040A3
:102F8000100C024000080040BC0000203456002015
:102F900070B51C4D0121284600F05FF801282AD1A8
:102FA000194CA16A491CA1626088184A814205D265
:102FB0004FF001011046FEF76FFE05E004D94FF017
:102FC00001011046FEF766FEA0884FF47A71B1FB4E
:102FD000F0F0A16A884201D20020A0620C4880680B
:102FE000002803DD206A00F10100206203DA206A74
:102FF000A0F1010020622846BDE870404FF00101B9
:1030000000F014B8000C0040DC000020000002407A
:1030100064560020002904D0018841F0800101801D
:103020007047018821F0800101807047C943018207
:103030007047002904D0018841F0010101807047E8
:10304000018821F0010101807047406B7047806B5F
:103050007047C06B7047006C704702460020138AAF
:103060000B4092890A40002B02D0002A00D0012098
:10307000704770B506460C4625886188A28823896A
:10308000002D0CD0042D13D0082D1AD03046FFF798
:10309000C8FCE1883046BDE8704000F0CDB830464D
:1030A000FFF774FCE1883046BDE8704000F0A8B836
:1030B0003046FFF782FCE1883046BDE8704000F002
:1030C000A7B83046FFF794FCE1883046BDE8704071
:1030D00000F0AAB8002A03D082890A43828170478F
:1030E00082898A438281704730B5028C22F00102C6
:1030F0000284058C8388028B22F0700222F0030286
:103100000C88144325F002028D8915434A882A430E
:103110000D4DA84202D00D4DA8420FD122F0080556
:10312000CA892A4322F004058A882A4323F480733B
:1031300023F400730D8A1D434B8A2B438380048341
:1031400089684163028430BD0000014000040140F1
:10315000028B22F008020A430283704770B5028C8A
:1031600022F010020284028C8388048B24F4E04451
:1031700024F440760D884FF6FF7404EA05253543A4
:1031800022F020028E8904EA061616434A8804EAD1
:1031900002123243114EB04202D0114EB04217D14A
:1031A00022F08002CE8904EA0616164326F0400675
:1031B0008A8804EA0212324323F4806323F4006312
:1031C0000E8A04EA86061E434B8A04EA83033343CD
:1031D0008380058389688163028470BD000001409B
:1031E00000040140028B22F400624FF6FF7303EAF1
:1031F0000121114301837047416370478163704728
:10320000028B22F00C020283028B0A430283704776
:10321000028B22F440620283028B4FF6FF7303EAB3
:1032200001210A4302837047828B22F00C028283C1
:10323000828B0A4382837047828B22F440628283AE
:10324000828B4FF6FF7303EA01210A4382837047A2
:1032500030B50288164C174DA0420DD0A8420BD0B5
:10326000B0F1804F08D0144B984205D0134B9842D0
:1032700002D0134B984203D122F070034A881A43BC
:10328000104B984206D0104B984203D022F4407362
:103290000A891A4302804A68C2620A880285A042EB
:1032A00001D0A84201D1897A01860121818230BDF5
:1032B00000000140000401400004004000080040FC
:1032C000000C0040001000400014004070B50A4C93
:1032D00040F225552946204600F03AF801280AD147
:1032E000204600F0CFF8054AD06029462046BDE8C8
:1032F000704000F019B870BD00100140240000209B
:1033000010B5074C40F22551204600F021F8002866
:1033100004D0204600F0B6F80249087010BD000045
:10332000001401402400002040F66A120A0A01211C
:103330009140C94301807047002904D0818941F43C
:10334000005181817047818921F40051818170474A
:1033500070B5002440F66A12C1F3421301F01F0554
:10336000012606FA05F2012B0CD0022B0DD0838A20
:103370001340090A8E40008830400BB100B101248F
:10338000204670BD83891340F3E7038A1340F0E7BA
:1033900010B540F66A13C1F3421301F01F04012176
:1033A000A140012B07D0022B07D014303AB102689C
:1033B0000A43026010BD0C30F8E71030F6E70268EF
:1033C0008A43026010BD00007FB504460D46208A86
:1033D00020F44051E88808432082A08941F20C6122
:1033E0008843A9882A8911436A8902431143A1812C
:1033F000A08A20F44071A8890843A0826846FFF79C
:103400009BF81E48844202D01D48844201D1039893
:1034100000E00298A189090408D500EBC00101EB86
:10342000001029684900B0FBF1F007E000EBC00193
:1034300001EB001029688900B0FBF1F06422B0FBB9
:10344000F2F109010B096FF018056B4300EB8300E3
:10345000A3891D044FF0320307D503EBC000B0FB76
:10346000F2F000F00700084306E003EB0010B0FBA9
:10347000F2F000F00F00084320817FBD00100140F2
:10348000001401408088C0F308007047FEE7000088
:1034900030B5A0F2DC50002801DD044600E04442D3
:1034A0000025104B642C01DD186000E01D60A1F2C6
:1034B000DC51002901DD084600E04842642801DDB6
:1034C000596000E05D60A2F2DC52002A01DD104686
:1034D00000E05042642801DD9A6000E09D60DD60FC
:1034E00030BD000064560020F8B51B4D00EB4001D4
:1034F00001EBC004686800EB8400006A00EBD07048
:103500004010FEF74FFA686800EB8400C06900F0D5
:1035100025F84FF4FA76304601F016FF686800EBA4
:103520008400806A00EBD0704010FEF73BFA6868B8
:1035300000EB8400406A00F04DF8304601F004FFD3
:103540006D6805EB84000169001D00910EC855F8F7
:10355000240000F07BF8F8BD1801002010B51949CF
:103560000022CA6101220A70174A184C012820D093
:1035700010211046FEF78EFB10212046FEF78AFB35
:10358000134C02212046FFF751FD04212046FFF78E
:103590004DFD012202212046FFF79CFD012204215E
:1035A0002046FFF797FD2046BDE810400121FFF7B8
:1035B00040BD10211046FEF76FFB10212046FEF79C
:1035C0006BFBDDE7DC000020000002400008024049
:1035D0000004004010B519490022CA6101220A7096
:1035E000174A184C012820D010211046FEF752FB34
:1035F00010212046FEF750FB134C02212046FFF716
:1036000015FD04212046FFF711FD0122022120466D
:10361000FFF760FD012204212046FFF75BFD2046F5
:10362000BDE810400121FFF704BD10211046FEF750
:1036300033FB10212046FEF72DFBDDE7DC000020E8
:103640000008024000000240000400402DE9F04163
:1036500004462DED028B8846089F15461E462046DF
:103660003146FEF71DFBDFED338AE41E00EE104A03
:103670003148B8EEC00AD0ED040A20EE800ADFED32
:103680002F0A80EE201ABDEEC18A012D13D03222FE
:103690000A210020FEF7A0FF404601F055FE00225F
:1036A00011460120FEF798FFBDEC028B6420BDE8B7
:1036B000F04101F049BE404601F046FE642001F0B1
:1036C00043FE32460A21002000F03AF832220A2155
:1036D0000020FEF781FFB8EEC80A38EE800ABCEE83
:1036E000C00A10EE100A01F02FFE0022114610460B
:1036F00000F026F8384601F027FE32460A21012064
:1037000000F01EF8B8EEC80A38EE800ABCEEC00A17
:1037100010EE100A01F018FE00221146012000F000
:103720000FF8BDEC028B0022BDE8F04111460120EC
:10373000FEF752BF0000FA43180100200000A0422B
:1037400070B50C461546084B012807D002211846D3
:10375000FEF7A2FA05484480858070BD0221184614
:10376000FEF798FAF6E7000000000240DC000020B7
:103770001FB5401EADF80400491E02910020ADF8AF
:103780000C00ADF806000E4C01A92046FFF760FDC5
:10379000012211462046FFF79DFC32218DF80010D2
:1037A00001218DF8011002228DF802208DF80310FE
:1037B0006846FEF7FDFC01212046FFF73AFC1FBDDD
:1037C000000C004003B401984100009850EAC12069
:1037D00018BF04204A0D18BF40F0010040F2FF72EC
:1037E000B2EB515F08BF40F00200012808BF05207E
:1037F00002B070470000000070B52DED020B2DEDFA
:103800000A8B82B00D98C40F20F00045AE48854267
:1038100048D3AE48854219D30C99C5F31300084329
:1038200009D09DED0C0B02B0BDEC0A8B02B0BDE8D7
:10383000704000F009BA002C14BF9FEDA50B9DED60
:103840000C0B02B0BDEC0A8B02B070BD9FEDA20B59
:1038500053EC102B9DED0C0B51EC100B03F04CFABC
:103860000AD20220FCF743FF02B0BDEC0A8B02B083
:10387000BDE8704000F0F4B99FED990B53EC102BAC
:103880009DED0C0B51EC100B03F0FCF80AD202205A
:10389000FCF72DFF02B0BDEC0A8B02B0BDE8704012
:1038A00000F0EEB990489FED92BBA8425CD29248DE
:1038B000854219D29148784400EBC40090ED000B8A
:1038C00053EC102B9DED0C0B51EC100B03F056FA42
:1038D00041EC1A0B8A48784400EBC40090ED009B41
:1038E000C4F10100041B36E09FED870B53EC102B55
:1038F0009DED0C0B51EC100B03F000F941EC100B9B
:103900008348784400EBC40090ED001B51EC100B91
:1039100053EC112B02F050FE03F05AF8044603F06A
:1039200086F841EC180B9FED7C0B53EC102B03F049
:10393000E5F89DED0C1B53EC112B03F013FA41EC51
:103940001A0B9FED770B51EC180B53EC102B03F077
:10395000D5F841EC190B51EC1A0B53EC192B03F071
:103960000DFACDE90C011BE06F48854217D29FED9F
:10397000700B53EC102B9DED0C0B51EC100B02F067
:103980001BFE53EC1B2B03F0B7F908D29DED0C0B7B
:1039900053EC1B2B51EC100B02F00EFE6EE00024DA
:1039A0009DED0C0B53EC102B51EC100B03F0A6F813
:1039B00041EC180B60480521B0EE480AF0EE680AA9
:1039C000784400F0C5F853EC182B51EC100B03F0C1
:1039D00095F89DED0C1B53EC112B03F0C3F941EC52
:1039E000180B9FED570B5CB353EC182B51EC100BDD
:1039F00003F0C4F99DED0C0B41EC1C0B53EC182BA0
:103A000051EC100B03F07AF853EC1C2B02F088FEFB
:103A100053EC192B03F0A6F953EC1A2B03F0AEF973
:103A200053EC1B2B03F09EF9CDE900016FF47F707E
:103A3000844226DB01EB045001909DED000B00E772
:103A400053EC102B51EC180B03F098F99DED0C0B77
:103A500041EC190B53EC182B51EC100B03F04EF802
:103A600053EC192B02F05CFE9DED0C1B53EC112B5B
:103A700003F084F953EC1B2B03F074F941EC100BA9
:103A8000DFE608464FF07A5101EB04519FED2E0B13
:103A9000084453EC102B01909DED000B51EC100BE2
:103AA00003F02CF80D4645EC100B044651EC100BBE
:103AB000FFF788FE042808BF00F0E2F845EC104B41
:103AC000BFE6000000000000422E86400000F07FAC
:103AD0000000000000000000EF39FAFE422E864090
:103AE00051302DD5104987C0422ED63F000000002E
:103AF000000000000000F03FB2A2F03F9658000026
:103B00008658000000000000FE822B654715F73F35
:103B10003A580000000000000000E0FE422EE63FA0
:103B2000763C7935EF39EA3D0000303E0000000078
:103B30009C7500883CE4377EAC5700000000000014
:103B400000000000000000400000000000007001C4
:103B500070B504462DED028B4D1E00EBC500B0EE96
:103B6000408AF0EE608A90ED000B35F0060017D029
:103B700053EC182B51EC100B02F0C0FF41EC100B72
:103B80006D1E04EBC50090ED001B51EC100B53ECC7
:103B9000112B02F011FD41EC100B35F00600E7D1BE
:103BA000022D36D0042D1CD0062D1CBFBDEC028B7F
:103BB00070BD53EC182B51EC100B02F09FFF94EDED
:103BC0000A1B53EC112B02F0F7FC53EC182B02F0FC
:103BD00095FF94ED081B53EC112B02F0EDFC41EC2A
:103BE000100B53EC182B51EC100B02F087FF94EDE7
:103BF000061B53EC112B02F0DFFC53EC182B02F0E8
:103C00007DFF94ED040B53EC102B02F0D5FC41EC3E
:103C1000100B53EC182B51EC100B02F06FFF94EDCE
:103C2000021B53EC112B02F0C7FC53EC182B02F0D3
:103C300065FF94ED001B53EC112B02F0BDFCBDECB5
:103C4000028B41EC100B70BD10B553EC102B51ECF6
:103C5000100B02F0B1FC41EC100B10BD0000000095
:103C60009FED050B10B553EC102B51EC100B02F02F
:103C700045FF41EC100B10BD00000000000000707B
:103C80009FED050B10B553EC102B51EC100B02F00F
:103C900035FF41EC100B10BD0000000000000010CB
:103CA00030380A2801D20120704700207047704741
:103CB0001CB501210220FEF707FCC0200090012462
:103CC0008DF804408DF806408DF8074002208DF8ED
:103CD000050069460448FDF78FFF0448046044600E
:103CE0004B2000F0F5FA1CBD0004024098824042CF
:103CF0002DE9FC4101210846FEF7F4FB01210220D9
:103D0000FEF7F0FB01210820FEF7ECFB012108463D
:103D1000FEF7DAFB01210420FEF7D6FBDFF8DC809A
:103D2000022206214046FDF7A5FF02220721404658
:103D3000FDF7A0FFC020009002258DF804508DF8FB
:103D4000055000268DF8066001248DF8074069466D
:103D50004046FDF751FF102700978DF804408DF87D
:103D600005508DF806608DF8074069464046FDF71E
:103D700043FF00978DF804408DF805508DF80660DC
:103D80008DF8074069461E48FDF736FF00948DF810
:103D900004408DF805508DF806608DF8075069468F
:103DA0004046FDF729FF00958DF804408DF8055039
:103DB0008DF806608DF8074069464046FDF71CFF08
:103DC000042000908DF804408DF805508DF80660B1
:103DD0008DF8075069464046FDF70EFF0820009019
:103DE0008DF804408DF805508DF806608DF8074079
:103DF00069464046FDF700FFBDE8FC810000024037
:103E0000000802402DE9F04F87B001210420FEF7A1
:103E100069FB01210846FEF781FB01211920FEF70D
:103E200053FB1B208DF8040001258DF805508DF8FB
:103E300006508DF8075001A8FEF7BAF91E208DF83C
:103E400004008DF805508DF806508DF8075001A834
:103E5000FEF7AEF94FF42850059002278DF8187040
:103E60004FF003088DF8198000248DF81A408DF862
:103E70001B70804E05A93046FDF7BEFEE802059096
:103E80008DF818708DF819808DF81A408DF81B7018
:103E9000DFF8E49105A94846FDF7AEFE01220921AD
:103EA0003046FDF7E7FE01220B213046FDF7E2FE2A
:103EB00001220D213046FDF7DDFE01220B2148468F
:103EC000FDF7D8FEDFF8B491A720A9F82800ADF8D7
:103ED00008400A26ADF80A60ADF80C50ADF80E4067
:103EE000ADF8104002A94846FFF7C3F84FF0040AA6
:103EF000ADF808A0ADF80A60ADF80C50ADF80E4072
:103F0000ADF8104002A94846FFF7B3F80821ADF814
:103F10000810ADF80A60ADF80C50ADF80E40ADF8E1
:103F2000104002A94846FFF7A4F84FF00C0BADF87B
:103F300008B0ADF80A60ADF80C50ADF80E40ADF821
:103F4000104002A94846FFF794F801214846FFF7C0
:103F500070F8012202214846FFF7BCF80122042133
:103F60004846FFF7B7F8012208214846FFF7B2F8A4
:103F7000012210214846FFF7ADF84FF4704005903C
:103F80008DF818708DF819808DF81A408DF81B7017
:103F90003B4F05A93846FDF72FFE02220C2138467B
:103FA000FDF768FE02220D213846FDF763FE02226E
:103FB0000E213846FDF75EFE02220F213846FDF73E
:103FC00059FE304953200880ADF80840ADF80A602A
:103FD000ADF80C50ADF80E40ADF81040294F02A9D5
:103FE000283F3846FFF745F8ADF808A0ADF80A605D
:103FF000ADF80C50ADF80E40ADF8104002A93846AF
:10400000FFF737F80821ADF80810ADF80A60ADF8F1
:104010000C50ADF80E40ADF8104002A93846FFF73D
:1040200028F8ADF808B0ADF80A60ADF80C50ADF85E
:104030000E40ADF8104002A93846FFF71AF80121EA
:104040003846FEF7F6FF012202213846FFF742F814
:10405000012204213846FFF73DF8012208213846A5
:10406000FFF738F8012210213846FFF733F807B080
:10407000BDE8F08F00100240000002400000014047
:10408000000C02402808004010B586B00121480508
:10409000FEF728FA01210220FEF716FA4FF44070CD
:1040A000009002208DF805008DF8040001208DF8A5
:1040B0000600174C69462046FDF79EFD04220821A4
:1040C0002046FDF7D7FD042209212046FDF7D2FD49
:1040D000104C2046FDF79AFE0021ADF80C104BF66F
:1040E000FF71ADF80E103021ADF810102115ADF8AC
:1040F00012100901ADF81410074902910121204660
:10410000FDF778FE02A92046FDF7E4FE06B010BDDB
:104110000004024000540040801A060010B56420DC
:1041200000F0BAF8AE20FEF79BF82020FEF798F8D2
:104130001020FEF795F8B020FEF792F8C820FEF7A1
:104140008FF80020FEF78CF81020FEF789F8402049
:10415000FEF786F88120FEF783F8FF20FEF780F84F
:10416000A120FEF77DF8A620FEF77AF8A820FEF73A
:1041700077F83F20FEF774F8A420FEF771F8D320FB
:10418000FEF76EF80020FEF76BF8D520FEF768F812
:10419000F020FEF765F8D920FEF762F82220FEF73E
:1041A0005FF8DA20FEF75CF81220FEF759F8DB2002
:1041B000FEF756F82020FEF753F88D20FEF750F852
:1041C0001420FEF74DF8AF20FEF74AF8FEF72EF860
:1041D0000021BDE810400846FEF74AB870B58AB025
:1041E0000020ADF81C001C490891ADF82400ADF882
:1041F0001E001A4E07A93046FFF72AF83021ADF805
:104200000810174904910124ADF80A400225ADF8C1
:10421000145002A93046FEF767FF08213046FEF72A
:1042200097FF02A93046FEF799FF08213046FEF7B6
:10423000D9FF01213046FEF7EDFE1D208DF8040068
:104240008DF805508DF806408DF8074001A8FDF760
:10425000AFFF0AB070BD00008096980000040040D7
:10426000404B4C0010B504460420FEF743FB0948C0
:1042700004704FF47A714C43012141804FF0E021EA
:10428000086940F0020008614C61086940F00100D3
:10429000086110BD1C00002070B5044601F0F4FE5A
:1042A00001280CD0094D6888844203D3B4FBF0F098
:1042B00001F04AF86888B4FBF0F100FB11444FF4B8
:1042C0007A706043BDE8704000F010B81C00002018
:1042D000002242F6E06305E01946491E0029FCD1A0
:1042E000521C92B28242F7D37047000070B5002191
:1042F0004FF0E0256C690A4A12785043AB69AA690D
:104300009A42FCD003D2A3EB0203194403E0A4EBCE
:1043100002063344194413468142F0D370BD0000B5
:104320001C00002003490A885206FCD5C2B28A80CC
:10433000704700000010014010B5FDF71FFA0F2074
:10434000FFF7C6FFBDE81040FEF75EB92DE9F0416A
:1043500006460F460025002439463046FFF7ECFF9D
:104360000544641CE4B21E2CF6D300EE105AF3EEA2
:104370000E0AB8EE400A80EE201ABCEEC10A10EE1A
:10438000100A80B2BDE8F0811CB5FDF7B4FA074809
:104390000221CDE9001000234FF4967204A10748D2
:1043A00001F042FE01F0A2F900201CBD1400002023
:1043B00053544152545F5441534B0000E14E0008A6
:1043C0002DE9F04104460F46174EF5683068001D90
:1043D00000F01CFE38B9306890F82C10012088409D
:1043E000316981433161601C07D137B13168BDE863
:1043F000F041091D0D4800F041BE2C443068446076
:10440000AC4206D23168B06B091DBDE8F04100F046
:104410001DBE3168706B091D00F018FEB06A844241
:1044200000D2B462BDE8F08148000020F805002009
:1044300070B5044600F02EFE1D4DA868401CA86013
:10444000286810B1686938B10CE02C60A8680128B0
:1044500008D100F09DF905E02868E16AC06A884249
:1044600000D82C60686A401C68626064E06A0121C0
:104470002A698140114329610E4900EB800001EB5C
:104480008000211D00F0FAFD00F044FE686900285C
:104490000CD02868E16AC06A884207D206494FF00A
:1044A00080500860BFF34F8FBFF36F8F70BD000067
:1044B000480000202803002004ED00E010B500F0C3
:1044C000E9FD0E4C2068A0B90D4800F0B1FD0C4884
:1044D000143000F0ADFD0A48E06014302061002285
:1044E0001021052001F0AAFA206010B105A100F00A
:1044F000F5FEBDE8104000F00DBE00008400002075
:104500000C060020546D72510000000070B5124E70
:10451000124D1CE001F0A4F9306820B1002401F034
:10452000F1FEA4B901E00124F9E700F0B3FDF06861
:10453000C468201D00F06AFDA868401EA860686875
:10454000401E686000F0E6FD204600F054F8686800
:104550000028DFD170BD0000E405002048000020E5
:1045600030B40B46026C002A0CD0C1681144C16003
:104570004468A14201D30168C160C16830BC1846DB
:10458000FCF738B830BC70472DE9F04104461746B7
:104590000026A56B226C002A10D0C7B1E068FCF79A
:1045A00029F8E168206C091AE1602268914202D280
:1045B0006168081AE060022F16D017E02068A8B9D9
:1045C000606801F0EFFD0646002060600EE0A06824
:1045D000FCF710F8216CA0680844A060616888426C
:1045E00004D32068A06001E005B16D1E6D1CA563B9
:1045F0003046BDE8F08110B50446206B00F0C2FDE6
:104600002046BDE8104000F0BDBD00000749CA6863
:104610001168002904D00021016019B10020704701
:104620000121F9E7D068006870470000840000208D
:104630004FF4A0410F48420706D0C01D20F00700EC
:104640000C49411AC1F5A0410B4A10600023536088
:104650000144083921F00701103A11604B600B60EA
:104660000B1A436001604068906050604FF000405A
:10467000D060704734060020A8000020074E4FF09D
:104680008054074DFFF742FF30680128FAD92C60AB
:10469000BFF34F8FBFF36F8FF4E7000028030020B4
:1046A00004ED00E070B51D46049C00290BD022608B
:1046B000E06321640121204601F0CAFA84F85050D9
:1046C0000020A06470BD2460F2E700002DE9F047EF
:1046D000DDE908580A9C81460E4617469A46B900FD
:1046E000A522206BFBF7CBFF206B7F1E00EB870022
:1046F00020F00707780705D040F22B3219A120A03F
:10470000FBF742FE00202218315C82F83410315C45
:1047100011B1401C1028F6D3002684F84360202DE8
:1047200000D31F25E562E5642665201D00F08BFCA3
:1047300004F1180000F087FC2461C5F12000A0619D
:104740006462666584F8586052464946384600F00F
:10475000A9FB2060B8F1000F01D0C8F80040BDE807
:10476000F08700002E2E5C434F4E4649475C467250
:10477000656552544F535C7461736B732E63000014
:104780004572726F723A25732C25640D0A00000081
:1047900070B50024114D04EB840005EB800000F09F
:1047A00047FC641C202CF6D30D4800F041FC0C485B
:1047B000143000F03DFC0A48283000F039FC08486D
:1047C0003C3000F035FC0648503000F031FC054824
:1047D000034941631431816370BD00002803002048
:1047E000A80500204800002030B5134900E011461C
:1047F0000A688242FBD34B685C18844203D140684C
:104800001844486008460D6844682318AB420DD12F
:10481000094B103B1B689A4206D052682244426002
:104820000A681268026002E0036000E002608142F0
:1048300000D0086030BD0000A800002070B5002442
:10484000416000610C4D91420AD8D11A82699142AF
:1048500001D301240EE0011D286900F0F7FB09E0F7
:104860009A4203D2994201D3012403E0011DE86872
:1048700000F0ECFB204670BD8400002010B504461B
:1048800000F008FCA06B20B1002400F043FC20469F
:1048900010BD0124F9E710B5044600F0FBFBA06B46
:1048A000E16B884201D1012400E0002400F032FCD9
:1048B000204610BD2DE9F3410F460098846C002678
:1048C000002C05D140F6CE1216A11DA0FBF75CFD11
:1048D000A06BE16B884205D340F6CF1211A118A05E
:1048E000FBF752FDA06BE16B88420CD294F9455066
:1048F0003A4669462046FFF747FE0646681C05D043
:104900006D1C84F845503046BDE8FC81606A002883
:10491000F9D004F1240001F0A3FC0028F3D0012613
:10492000F1E700002E2E5C434F4E4649475C46722D
:10493000656552544F535C71756575652E63000053
:104940004572726F723A25732C25640D0A000000BF
:10495000F8B505460E461348C068C068C468201DF7
:1049600000F054FBE069012816D1A0692B464119DB
:1049700032462046FFF762FF70B100200346014631
:1049800000902A46204601F073FD28B94FF40272C8
:1049900005A10CA0FBF7F8FC616A01B02046BDE858
:1049A000F0400847840000202E2E5C434F4E4649BD
:1049B000475C4672656552544F535C74696D65720D
:1049C000732E63004572726F723A25732C25640D45
:1049D0000A00000070B586B02F4E53E00298002800
:1049E00003DADDE90320059990470298002849DBA6
:1049F000049C606910B1201D00F008FB01A800F0C4
:104A0000ABF8054602980A283CD2DFE800F005051D
:104A1000053B273805053B270398A1690346014458
:104A20002A462046FFF70AFF00282BD0616A20465D
:104A30008847E069012825D1002000900398A169EA
:104A4000002342181946204601F012FDD0B940F269
:104A5000213212A118A0FBF797FC13E00398A06184
:104A600028B94FF44E720DA113A0FBF78DFCA0697D
:104A70002B4641192A462046FFF7E0FE02E0204679
:104A800000F080FB00231A4602A9306801F00CF800
:104A90000028A3D106B070BD840000202E2E5C43F8
:104AA0004F4E4649475C4672656552544F535C749D
:104AB000696D6572732E63004572726F723A257369
:104AC0002C25640D0A000000F8B506460D4600F0DE
:104AD000C7FE684600F040F80446009810B101F0A7
:104AE00011FCF8BD45B9A64206D801F00BFC2146E1
:104AF0003046FFF72DFFF8BD0C481DB1016909686C
:104B000091B10025311B2A46006800F0F9FB01F045
:104B1000F9FB0028EFD106494FF080500860BFF341
:104B20004F8FBFF36F8FF8BD0125EBE784000020A6
:104B300004ED00E00748416B0968002905D0416B8E
:104B4000C968C9684968816270474FF0FF31816266
:104B5000704700004800002070B5054601F0A2FA39
:104B60000446074EB068844204D200F00BF80120DE
:104B7000286001E000202860B460204670BD00007D
:104B800084000020F8B5184E25E0C0680568C468A8
:104B9000201D00F03BFA616A20468847E069012841
:104BA00019D1A0692844A84206D960602461211D5A
:104BB000F06800F04BFA0EE000200346014600903A
:104BC0002A46204601F054FC28B940F2923207A14F
:104BD0000DA0FBF7D9FBF06801680029D5D1F0687A
:104BE0003169F1603061F8BD840000202E2E5C43F5
:104BF0004F4E4649475C4672656552544F535C744C
:104C0000696D6572732E63004572726F723A257317
:104C10002C25640D0A00000008484068401C05D09F
:104C200040F20F1206A113A0FBF7AEFB502080F359
:104C30001188BFF34F8FBFF36F8FFEE7B0000020E6
:104C40002E2E5C434F4E4649475C46726565525472
:104C50004F535C706F727461626C655C5256445362
:104C60005C41524D5F434D34465C706F72742E63ED
:104C7000000000004572726F723A25732C25640D96
:104C80000A00000070B500250446002805D140F256
:104C9000826208A10EA0FBF777FB11496069884288
:104CA00005D1A06A2839884201D000B901252846DB
:104CB00070BD00002E2E5C434F4E4649475C467245
:104CC000656552544F535C7461736B732E630000BF
:104CD0004572726F723A25732C25640D0A0000002C
:104CE000F805002008B56846FFF790FC0099FFF72B
:104CF000EBFEFFF76FFEF6E72DE9F041044600F00A
:104D0000C9F994F9455004F1240613E0A06C38B1B8
:104D100000212046FFF7CEFD50B100F0BBFB07E0BD
:104D2000606A48B1304601F09BFA08B100F0B2FB6E
:104D30006D1E6DB2002DE9DC4FF0FF3684F8456042
:104D400000F0E8F900F0A6F994F9445004F11007D6
:104D500009E0206948B1384601F082FA08B100F054
:104D600099FB6D1E6DB2002DF3DC84F84460BDE844
:104D7000F04100F0CFB900002DE9F04105460026D2
:104D800000F06EFD304F386808B9FFF751FCF86845
:104D900005424BD175B1083568070BD005F0070007
:104DA000C0F108000544680704D0BF2227A133A042
:104DB000FBF7EAFA002D39D07868854236D82249C7
:104DC00010310846046801E0214604466068A842A4
:104DD00002D220680028F7D13868844226D00E68B5
:104DE0000836206808606068401B102811D904EB61
:104DF00005085FEA487004D0EC2214A11FA0FBF75D
:104E0000C3FA6068401BC8F8040065604046FFF7BD
:104E1000EBFC61687868401A7860BA68904200D20A
:104E2000B860F868014361600020206001F06AFA10
:104E3000700705D04FF4967204A110A0FBF7A4FAF6
:104E40003046BDE8F0810000980000202E2E5C4323
:104E50004F4E4649475C4672656552544F535C70ED
:104E60006F727461626C655C4D656D4D616E675CFF
:104E7000686561705F342E63000000004572726FD8
:104E8000723A25732C25640D0A0000000449086855
:104E9000002803D00868026D521C0265086870473C
:104EA0004800002024384FF08073036221F0010194
:104EB000C1610449816142606FF0020140F820192C
:104EC00070470000194C000810B50A215420FDF766
:104ED00079FE02490020C88010BD0000DC000020DF
:104EE0007CB500F0D7F800240420CDE900044FF48D
:104EF000FA7523462A4610A1104801F095F80620BD
:104F0000CDE9000400232A460DA10F4801F08CF8DA
:104F10000E480521CDE9001000232A460CA10F48B8
:104F200001F082F80948001F006800F049FABDE866
:104F30007C4000F0EFB8000046534D00991A00087D
:104F400053686F77000000006D28000818000020EB
:104F5000496E666F726D6174696F6E00352000086E
:104F6000F0B587B0054601210846FDF7ADFA0121ED
:104F70001020FDF7D3FA234F072209213846FCF70A
:104F800079FE07220A213846FCF774FE4FF4C06010
:104F9000059002208DF818008DF8190000248DF876
:104FA0001A4001268DF81B6005A93846FCF724FE3F
:104FB0000195ADF80840ADF80A40ADF80C40ADF8E9
:104FC00010400C20ADF80E000F4C01A92046FEF752
:104FD000FBF901212046FEF7AFF9012240F22551ED
:104FE0002046FEF7D5F925208DF8000003208DF826
:104FF00001008DF802008DF803606846FDF7D8F8CF
:1050000007B0F0BD00000240001001400169D0E986
:1050100001329A60D0E901235A604A68824201D184
:1050200082684A60002202610868401E086070477A
:1050300000F1080141604FF0FF328260C160016100
:1050400000210160704700210161704730B50C6894
:10505000621C02D000F1080202E0026904E01A4674
:1050600053681D68A542FAD953684B6099608A60FD
:10507000516008610168491C016030BD42684A60A6
:1050800093688B6093685960916008610168491C5E
:1050900001607047502080F31188BFF34F8FBFF33A
:1050A0006F8F09494868401C486001280AD10748A9
:1050B000006810F0FF0F05D040F2B91204A111A052
:1050C000FBF762B970470000B000002004ED00E07B
:1050D0002E2E5C434F4E4649475C467265655254DE
:1050E0004F535C706F727461626C655C52564453CE
:1050F0005C41524D5F434D34465C706F72742E6359
:10510000000000004572726F723A25732C25640D01
:105110000A00000010B5094C6068002805D14FF462
:10512000E07207A113A0FBF72FF96068401E6060D2
:10513000002801D180F3118810BD0000B0000020CC
:105140002E2E5C434F4E4649475C4672656552546D
:105150004F535C706F727461626C655C525644535D
:105160005C41524D5F434D34465C706F72742E63E8
:10517000000000004572726F723A25732C25640D91
:105180000A00000070B500282AD008380446154DE2
:105190006068E968084205D14FF4A07212A11EA010
:1051A000FBF7F2F8206828B140F241120EA11AA0D4
:1051B000FBF7EAF86068E968084211D02268002A23
:1051C0000ED18843606000F04BFB6068696808445A
:1051D00068602046FFF708FBBDE8704001F092B818
:1051E00070BD0000980000202E2E5C434F4E4649B3
:1051F000475C4672656552544F535C706F727461C0
:10520000626C655C4D656D4D616E675C6865617073
:105210005F342E63000000004572726F723A25738E
:105220002C25640D0A00000006484FF47A710068CE
:10523000B0FBF1F14FF0E020491E4161072101610F
:10524000704700000000002010B5FBF777F8104C05
:1052500010280CD300F1E02090F8F0032178884268
:1052600005D24FF440720BA117A0FBF78DF81A4836
:105270000068A16800F4E060884207D9BDE81040EA
:105280004FF4447203A110A0FBF77EB810BD0000DC
:10529000B00000202E2E5C434F4E4649475C4672BC
:1052A000656552544F535C706F727461626C655CDB
:1052B000525644535C41524D5F434D34465C706FCF
:1052C00072742E63000000004572726F723A25738B
:1052D0002C25640D0A0000000CED00E010B5002242
:1052E000064B53F832401CB1521C082AF9D310BDAA
:1052F00043F8321003EBC201486010BDE802002001
:1053000070B504460D461646FFF7C4FE94F94430C6
:105310004FF000005B1C01D184F8440094F9451063
:10532000491C01D184F84500FFF7F4FEA06B28B9B1
:105330003246294604F1240000F0E2F82046BDE898
:105340007040FFF7D9BC000010B504460020002CC7
:1053500010D00E48006B28B140F2CF420CA113A030
:10536000FBF712F800F07CFA00212046FFF728F83E
:1053700000F0C8FF002807D110494FF080500860A6
:10538000BFF34F8FBFF36F8F10BD000048000020A8
:105390002E2E5C434F4E4649475C4672656552541B
:1053A0004F535C7461736B732E6300004572726FB0
:1053B000723A25732C25640D0A00000004ED00E00C
:1053C00070B50446FFF766FE234D04B92C68201D16
:1053D000FFF71CFE58B9E06A204A00EB800152F842
:1053E000211021B901218140286988432861A06AE0
:1053F00018B104F11800FFF709FE686A401C6862E2
:105400002868844207D1211D1548FFF737FE6868D8
:10541000401C686007E0A868401EA8602046FFF7AF
:10542000EAF8FFF787FBFFF775FE6869002812D0DE
:10543000286884420FD1286B28B140F2654209A147
:105440000FA0FAF7A1FF12494FF080500860BFF398
:105450004F8FBFF36F8F70BD4800002028030020DE
:10546000E40500202E2E5C434F4E4649475C4672B1
:10547000656552544F535C7461736B732E63000007
:105480004572726F723A25732C25640D0A00000074
:1054900004ED00E001490120C86170474800002088
:1054A00070B504460D46002C05D140F6073208A120
:1054B0000EA0FAF769FF1148016820461831FFF77E
:1054C000C5FD2846BDE870400121FEF779BF000008
:1054D0002E2E5C434F4E4649475C467265655254DA
:1054E0004F535C7461736B732E6300004572726F6F
:1054F000723A25732C25640D0A0000004800002034
:1055000070B506460D461446002E05D140F63232DF
:1055100009A110A0FAF738FF124801683046183187
:10552000FFF7ACFD0CB14FF0FF3521462846BDE832
:105530007040FEF745BF00002E2E5C434F4E46499B
:10554000475C4672656552544F535C7461736B736C
:105550002E6300004572726F723A25732C25640D1C
:105560000A0000004800002070B50446002839D029
:105570001D4DE06A2968C96A884233D2A0690028B3
:1055800004DB2868C06AC0F12000A061E06A174E01
:1055900000EB8000616906EB800081421FD1201D75
:1055A000FFF734FD012150B9E06A00EB800256F8A4
:1055B000222022B92A6901FA00F082432A61286870
:1055C000C06AE0622A6981401143296100EB8000D2
:1055D00006EB8000211DBDE87040FFF74FBD286835
:1055E000C06AE06270BD000048000020280300206F
:1055F00070B50446002805D140F2AC6219A120A084
:10560000FAF7C2FE002C2BD0214D2868844227D007
:10561000FFF740FD2046FFF735FBE8B1201DFFF7FF
:10562000F5FCE06A01212A69814011432961194989
:1056300000EB800001EB8000211DFFF71FFDE06AF9
:105640002968C96A884207D313494FF0805008601F
:10565000BFF34F8FBFF36F8FBDE87040FFF75ABDA8
:1056600070BD00002E2E5C434F4E4649475C46728B
:10567000656552544F535C7461736B732E63000005
:105680004572726F723A25732C25640D0A00000072
:10569000480000202803002004ED00E010B5044677
:1056A000002C05D140F6C23204A10BA0FAF76CFE23
:1056B0000D48016A2160C068606010BD2E2E5C43F9
:1056C0004F4E4649475C4672656552544F535C7471
:1056D00061736B732E6300004572726F723A2573AB
:1056E0002C25640D0A000000480000201CB5174856
:1056F0000024CDE900402346822215A1164800F07F
:1057000093FC012801D100F077FE01280AD0401C4B
:105710001BD102B040F28572BDE810400FA116A067
:10572000FAF732BE502080F31188BFF34F8FBFF3DA
:105730006F8F06484FF0FF312C38816201214161A3
:10574000C460BDE81C4000F0D7B81CBD7400002048
:1057500049444C45000000007D4600082E2E5C4365
:105760004F4E4649475C4672656552544F535C74D0
:1057700061736B732E6300004572726F723A25730A
:105780002C25640D0A00000070B50446FFF782FC6A
:10579000244D04B92C68201DFFF738FC58B9E06A85
:1057A000214A00EB800152F8211021B901218140EA
:1057B000286988432861A06A18B104F11800FFF72E
:1057C00025FC211D1948FFF759FCFFF7A3FC686968
:1057D00028B1FFF75FFCFFF7ADF9FFF79BFC2868E6
:1057E000844211D1686980B1286B28B14FF4CB6233
:1057F0000FA116A0FAF7C8FD18494FF080500860B5
:10580000BFF34F8FBFF36F8F70BD0848A968006862
:10581000884202D10020286070BDBDE8704000F0D1
:1058200027B800004800002028030020F8050020C9
:105830002E2E5C434F4E4649475C46726565525476
:105840004F535C7461736B732E6300004572726F0B
:10585000723A25732C25640D0A00000004ED00E067
:105860000248016B491C016370470000480000209A
:1058700070B5144D286B002802D00120E86170BD7E
:105880000020E8612869B0FA80F0C0F11F000E4ED8
:1058900000EB800456F8240028B940F6F7220BA14B
:1058A00011A0FAF771FD06EB840041684968416078
:1058B00000F10802914201D1496841604068C06826
:1058C000286070BD48000020280300202E2E5C4375
:1058D0004F4E4649475C4672656552544F535C745F
:1058E00061736B732E6300004572726F723A257399
:1058F0002C25640D0A0000001CB52F4C20682F4990
:10590000884205D140F259122DA13AA0FAF73CFD88
:1059100020682A49491E884205D14FF4AD7228A15A
:1059200034A0FAF731FD374C20780190FF20207029
:10593000207800909DF800009DF8001000F0F00025
:10594000884205D040F273121DA12AA0FAF71CFD6F
:105950009DF800002C4A00F0500010700720906065
:1059600006E09068401E90609DF8000040000090A6
:105970009DF800000006F4D4107A000200F4E06004
:105980009060019820700C482030016841F470014B
:105990000160016841F070410160FFF745FC0020A3
:1059A0005060FAF793FC1948016841F040410160EA
:1059B000FAF77CFC00201CBD00ED00E071C20F4135
:1059C0002E2E5C434F4E4649475C467265655254E5
:1059D0004F535C706F727461626C655C52564453D5
:1059E0005C41524D5F434D34465C706F72742E6360
:1059F000000000004572726F723A25732C25640D09
:105A00000A00000000E400E0B000002034EF00E0F5
:105A100010B5502080F31188BFF34F8FBFF36F8F05
:105A200000F046FB18B104494FF080500860002098
:105A300080F3118810BD000004ED00E0F8B50546C4
:105A40000E461746002D05D14FF4C4720BA112A0CB
:105A5000FAF79AFC86B105FB06F05430FFF78CF993
:105A600004463CB104F154023B46314628460094BA
:105A7000FEF718FE2046F8BD0020EEE72E2E5C4310
:105A80004F4E4649475C4672656552544F535C71B0
:105A9000756575652E6300004572726F723A2573E5
:105AA0002C25640D0A0000002DE9FF4F83B0044649
:105AB0008A469B460026002C05D140F2DC4258A1C4
:105AC0005EA0FAF761FCBAF1000F07D1206C28B193
:105AD00040F2DD4252A159A0FAF756FC00F0D4FA88
