:020000040800F2
:10000000E85C002045030008B1230008071E000833
:10001000AD230008231A0008833B000800000000FD
:100020000000000000000000000000008D02000839
:10003000651B000800000000E1020008252C0008F4
:100040005F0300085F0300085F0300085F03000808
:100050005F0300085F0300085F0300085F030008F8
:100060005F0300085F0300085F0300085F030008E8
:100070005F0300085F0300085F0300085F030008D8
:100080005F0300085F0300085F0300085F030008C8
:100090005F0300085F0300085F0300085F030008B8
:1000A0005F0300085F0300085F030008D12D00080C
:1000B0008930000801310008413300085F0300085F
:1000C0005F0300085F0300085F0300085F03000888
:1000D0005F0300087D3900085F0300085F03000824
:1000E0005F0300085F0300085F0300085F03000868
:1000F0005F0300085F0300085F0300085F03000858
:100100005F0300085F030008B13500085F030008C3
:100110005F0300085F0300085F0300085F03000837
:100120005F0300085F0300085F0300085F03000827
:100130005F0300085F0300085F0300085F03000817
:100140005F0300085F0300085F0300085F03000807
:100150005F0300085F0300085F030008AD39000873
:100160005F0300085F0300085F0300085F030008E7
:100170005F0300085F0300085F0300085F030008D7
:100180005F0300085F03000800F002F800F06FF85A
:100190000AA090E8000C82448344AAF10107DA45E2
:1001A00001D100F064F8AFF2090EBAE80F0013F0C5
:1001B000010F18BFFB1A43F001031847209E0000EF
:1001C000409E00000A444FF0000C10F8013B13F071
:1001D000070408BF10F8014B1D1108BF10F8015BA0
:1001E000641E05D010F8016B641E01F8016BF9D193
:1001F00013F0080F1EBF10F8014BAD1C0C1B09D1EA
:100200006D1E58BF01F801CBFAD505E014F8016B5B
:1002100001F8016B6D1EF9D59142D6D370470000ED
:100220000023002400250026103A28BF78C1FBD8FF
:10023000520728BF30C148BF0B607047662907F0DE
:10024000DA85642900F0EA80732900F0EE8400204A
:1002500070471FB507F0C5FD00F052FD04000020F7
:10026000002107F039F8E0601FBD10B510BD00F0A7
:100270004FFE1146FFF7EDFF04F0BCFC00F06DFEF1
:1002800003B4FFF7F2FF03BC04F0E1F82A4B19684E
:100290000868B0E8F04F80F30988BFF36F8F4FF024
:1002A000000080F3118870470000000006480068D5
:1002B000006880F3088862B661B6BFF34F8FBFF362
:1002C0006F8F00DF00BF00BF08ED00E0DFF80C001B
:1002D000016841F470010160704700BF88ED00E0E3
:1002E000EFF30980BFF36F8F134B1A681EF0100FE6
:1002F00008BF20ED108A20E9F04F106008B44FF0DD
:10030000500080F31188BFF34F8FBFF36F8F06F05B
:100310007FF84FF0000080F3118808BC1968086866
:10032000B0E8F04F1EF0100F08BFB0EC108A80F359
:100330000988BFF36F8F70474C000020EFF30580F2
:10034000704700000948804709480047FEE7FEE77C
:10035000FEE7FEE7FEE7FEE7FEE7FEE7FEE7FEE775
:1003600004480549054A064B70470000452C000823
:1003700089010008E8560020E85C0020E8580020C9
:10038000E8580020704700000FB4044910B503AAD4
:10039000029800F04FFC10BC5DF814FB2C0000200C
:1003A0000FB41CB5074B06AA7B446946009005981C
:1003B00000F011FC0020694600F020FC1CBC5DF838
:1003C00014FB00005108000070B50C460546012AD8
:1003D00005D02878800600D5EA69002302E00123D1
:1003E00005E05B1C934202D2E05C0028F9D1A869C9
:1003F000E618C01AA861286A184428622846AFF394
:10040000008004E0D5E9012114F8010B9047B442C3
:10041000F8D32846AFF3008070BD00002DE9F0410D
:100420000646002410687529314616A510D0AFF392
:100430000080002802DA404213A507E031688A07ED
:1004400001D512A502E0490704D511A5012401E058
:10045000AFF3008000210A2206F1240709E0B0FB77
:10046000F2FCB0FBF2F302FB1C003030785418466B
:10047000491C0028F3D123462A463046BDE8F04106
:1004800000F03BB9000000002D0000002B00000030
:10049000200000002DE9F0474FF0000A894604468D
:1004A000C0F820A02046E1688847002876D025289B
:1004B00006D0D4E901219047206A401C2062F1E770
:1004C000E168204600268847C4F81CA0054600279E
:1004D000C4F818A02A2D09D0284603F0B1FF38B37C
:1004E00004EB8708303DC8F8185019E059F8041B90
:1004F000204604EB87029161E1688847012F054699
:1005000018D1E069002820DA26F020061DE0D8F88E
:10051000180000EB800005EB40003038C8F81800E8
:100520002046E1688847054603F08AFF0028EED19F
:10053000012F0AD02E2D08D12046E16888477F1C64
:100540000546022F46F02006C4DBA069002803DA26
:10055000404246F00106A061F00701D026F01006E7
:100560006C2D0AD0682D08D04C2D39D06A2D35D08D
:10057000742D35D07A2D33D016E0E1682F46204611
:100580008847B84205460AD16C2F27D04FF48060C7
:10059000E168064320468847054605E027E06C2FC2
:1005A0001AD04FF4807006430DB3A5F1410019280D
:1005B00002D8203546F400664A4629462046266081
:1005C0004E46FFF73BFE80B101280BD0F61D26F00A
:1005D000070000F1080965E74020E4E78020D7E73D
:1005E0000020D5E706F104095CE7284661E7206AA8
:1005F000BDE8F087032A40F2308010F0030C00F0D1
:10060000158011F8013BBCF1020F624498BF11F84C
:1006100001CB00F8013B38BF11F8013BA2F1040205
:1006200098BF00F801CB38BF00F8013B11F003037D
:1006300000F01283083AC0F0088051F8043B083AF1
:1006400051F804CBA0E80810F5E7121D5CBF51F883
:10065000043B40F8043BAFF30080D20724BF11F8FD
:10066000013B11F801CB48BF11F8012B24BF00F862
:10067000013B00F801CB48BF00F8012B704702F0A6
:10068000FF0343EA032242EA024200F019BB4FF0A3
:10069000000200B5134694469646203922BFA0E8D2
:1006A0000C50A0E80C50B1F12001BFF4F7AF0907DE
:1006B00028BFA0E80C5048BF0CC05DF804EB8900CF
:1006C00028BF40F8042B08BF704748BF20F8022B12
:1006D00011F0804F18BF00F8012B7047704770472A
:1006E0007047704710B500F00FFB006810BD10B5E3
:1006F000044600F009FB046010BD2DE9F0470D46EB
:1007000099469246044600F124080168880604D5FB
:10071000E06921F01001216000E00120A84201DD24
:10072000471B00E00027A1697A1902EB0900081AAB
:10073000A0612078C00602D42046AFF300800026D6
:1007400008E0D4E901211AF806009047206A401C0D
:10075000761C20624E45F4DB2078C0060AD5204680
:10076000AFF3008006E0D4E9012130209047206AF1
:10077000401C2062381EA7F10107F4DC07E0D4E931
:10078000012118F805009047206A401C2062281EAD
:10079000A5F10105F3DC2046AFF3008020780006C8
:1007A00002D50220BDE8F0870120FBE770472DE964
:1007B000FF4F0C461E464FF0FF378BB0D2E90001C9
:1007C000DDF860800A908A46C1F30A5505B93D46B6
:1007D000002108464FF00000BAF1000F00F440007D
:1007E00005DA00EB80004FF4400101EA50004FEAC7
:1007F0009059B9F1010F00DDB9460A9850EA4A0054
:100800000ED044F61050A5F2FF3545432F14B8F131
:10081000000F1ED07542291E1EDDC9F100021CE02A
:10082000B8F1010F4FF0000001D0302103E0F24396
:1008300005E02154401CB042FBDB30460022002181
:1008400021540B99C1F80880C1E900200FB0BDE820
:10085000F08FBD1B6D1CDEE74A4600DA694206A830
:1008600000F0DCFA06AB93E8070003AB83E807006F
:1008700050460A9900F0BAFB8DE80700A0F5005039
:100880001F3800900398002D0ADD42F21F014A46EE
:100890000844002303A90390684600F023FE09E002
:1008A000A0F500504A461F38002303A9039068466C
:1008B00000F02DFE8DE807000004000C03D04FF07F
:1008C000FF30410800E01046B8F1000F03D00022CD
:1008D000009215461EE0751E05D400F019FA30325C
:1008E00062556D1EF9D5B3460122084302D000229D
:1008F0007F1C04E02078302801D100227F1E002ACE
:10090000099784D01DE0112D07DA00F001FA30328A
:1009100062556D1C50EA0102F5D1084302D00098DF
:10092000C8B10EE00021681E05E0235C625C6354E0
:100930002254401E491C8142F7DBAB46A81B401ED7
:100940000990002004F80B000B98099AC0F8088061
:10095000C0E9002B7AE711264FF0000857E72DE990
:10096000F04F88460446D21D22F0070191B0D1E92C
:100970000001CDE90A0103F0F5FA02460B98C00F19
:1009800001D02D2007E02068810701D52B2002E04F
:10099000202101EAC000032A099001D0072A05DBC3
:1009A00003464146204600F0F9F90BE12078800625
:1009B00001D5E06900E00620B8F1650F814606D058
:1009C000B8F1660F18D0B8F1670F70D131E0002090
:1009D000B9F1110F009001DB112301E009F10103CE
:1009E0000AAA01A90CA8FFF7E2FEDDE90C700026B7
:1009F00009F10105834647E001204B4600904FF086
:100A000000470AAA01A90CA8FFF7D1FEDDE90DB045
:100A10000C995D46002610B909F101000D18B9EBDB
:100A2000050003D4C0F1FF3609F10105A5EB09006B
:100A30002BE0B9F1010F01DA4FF001090020B9F103
:100A4000110F0090484601DD112300E003460AAA79
:100A500001A90CA8FFF7ABFEDDE90C704D4600269E
:100A60008346207800070AD4AB4500DA5D4601A82A
:100A7000012D04DD411911F8011C302907D04F4523
:100A800002DA17F1040F04DA012082460FE06D1E2E
:100A9000EEE7002F02DCED1B3E4403E0781CA84289
:100AA00000DD7D1CB81B00F1010A4FF000472078E3
:100AB000000703D4AA4501DB4FF0FF3A0021B7F14C
:100AC000004F0DF143088DF8431024D002202B2352
:100AD000002F01DA7F422D230A21021EA0F101001E
:100AE00000DC5FB197FBF1FC97FBF1F201FB1C7C92
:100AF00017460CF1300C08F801CDEEE7A8F1010023
:100B000003702188090501D5452100E06521A0F188
:100B1000010800F8011C09980FA9A1EB0807FF1DA7
:100B200000B10120411901EBEA70A1693844081AAB
:100B3000401EA0612078C00602D42046AFF300809A
:100B4000099828B1D4E901219047206A401C20620D
:100B50002078C00622D52046AFF300801EE0002E8C
:100B600004DBB34502DD01A8805D00E03020D4E95C
:100B700001219047206A401C2062761CAAF10100E6
:100B80005FEA000A0AD100F0BBF8C0680168405C67
:100B9000D4E901219047206A401C2062281EA5F15B
:100BA0000105DCDC07E0D4E9012118F8010B9047CE
:100BB000206A401C2062381EA7F10107F3DC2046A2
:100BC000AFF30080032011B041E6000001694A1C28
:100BD00002610878704700B58FB0CDE9013100217E
:100BE000059105497944CDE9031011466846FFF7A0
:100BF00051FC0FB000BD0000E5FFFFFF0A6802F8DE
:100C0000010B0A60704710B5436913B1AFF3008060
:100C100001E0FFF7D9FB012010BD127800F124019B
:100C20000A7000224A700122EDE711684FF0FF328E
:100C3000E9E70000074B70B50D467B44FFF7CBFF9B
:100C40000446284600F05CF910B14FF0FF3070BD4B
:100C5000204670BD333F000010B5203AC0F00B8035
:100C6000B1E81850203AA0E81850B1E81850A0E8B0
:100C70001850BFF4F5AF5FEA027C24BFB1E818500A
:100C8000A0E8185044BF18C918C0BDE810405FEA7A
:100C9000827C24BF51F8043B40F8043B08BF7047F6
:100CA000D20728BF31F8023B48BF11F8012B28BFFB
:100CB00020F8023B48BF00F8012B70474FF00002BC
:100CC0000429C0F0128010F0030C3FF4E2ACCCF128
:100CD000040CBCF1020F18BF00F8012BA8BF20F8CC
:100CE000022BA1EB0C01FFF7D4BC5FEAC17C24BF4F
:100CF00000F8012B00F8012B48BF00F8012B7047CA
:100D000000487047A45600200048704784560020D1
:100D100030B5B0F10A024FEA900E71F100034EEACD
:100D2000817EB0EB0E0061EB91014FEA101E4EEA9E
:100D3000017E10EB0E0041EB11114FEA102E4EEA2E
:100D4000016E10EB0E0041EB11214FEA104E4EEAFE
:100D5000014E10EB0E0041EB1141401841F1000132
:100D60004FEAD00040EA41704FEAD10110EB800514
:100D70004FEA810444EA907444EB01046D1944EB9A
:100D80000404521BA3414FF0000348BF0A3200D5B0
:100D900030BD401C41F1000130BD00002DE9F041A3
:100DA0001F46044603260168072A01F4006004DB9D
:100DB00008B116A505E016A503E008B115A500E0E9
:100DC00015A521F010002060A069C01EA0610FB120
:100DD000401EA0612046AFF300804FB1D4E901214D
:100DE00038469047206A401C2062C01C206206E002
:100DF000206AFAE7D4E9012115F8010B9047761E25
:100E0000F8D22046AFF30080BDE8F0814E414E009D
:100E10006E616E00494E4600696E66002DE9F0472E
:100E2000814616468AB0354878440DC88DE80D00D5
:100E300032487844801C03AC0DC884E80D0041F6AC
:100E40009B300844372190FBF1F290FBF1F5A5F1BE
:100E5000800501FB12041B3C02D56442012000E026
:100E60000020DFF898A080460027FA44AAF1BE0AC5
:100E70000EE0E0070AD03246684607EB470101233F
:100E80000AEB810100F043FB8DE8070064107F1C32
:100E9000002CEED1194F7F44AE3F19E0E80715D082
:100EA00007EB04100DF1180A90E80E008AE80E0016
:100EB000C068F04201D1981908903246012306A972
:100EC00003A800F024FB03AB83E807006D10641C4B
:100ED000002DE3D14FF0010332466946B8F1000F0F
:100EE00003A802D000F0FEFA01E000F010FBC9E90F
:100EF0000001C9F808200AB0BDE8F0879891000009
:100F0000007B00F080007047004870478456002046
:100F10007546FFF7F9FFAE4605006946534620F0D7
:100F20000700854618B020B5FFF71AFABDE8204043
:100F30004FF000064FF000074FF000084FF0000B95
:100F400021F00701AC46ACE8C009ACE8C009ACE848
:100F5000C009ACE8C0098D46704710B50446AFF330
:100F600000802046BDE81040FFF78AB94FF0013CF1
:100F700050F8042B51F8043B9A4221D1A2EB0C0308
:100F8000934313EACC1317D150F8042B51F8043BC8
:100F90009A4215D1A2EB0C03934313EACC130BD165
:100FA00050F8042B51F8043B9A4209D1A2EB0C03F0
:100FB000934313EACC13DBD04FF00000704700BF1F
:100FC000D01A01BAB1FA81F101F0180122FA01F048
:100FD000CB40C1F12001DBB2C0B2C01A2CFA01F340
:100FE000D11A914311EAC311E6D170475FEA400C70
:100FF00008BF91F0000F4FEA8C234FEAC12243EA69
:1010000051514FEA1C5018BF00F5F0404FEA300034
:1010100018BF41F000415FEA6C5C00F02980BCF130
:10102000FF3F08BF40F080407047130C06BF12041A
:101030004FF0100C4FF0000C130E04BF12020CF115
:10104000080C130F04BF12010CF1040C930F04BF22
:1010500092000CF1020CD30F04BF52000CF1010CF2
:1010600011464FF00002A0F11F00A0EB0C007047EA
:1010700011F0004F08BF704731F000413FF4D5AF89
:101080000B0C06BF09044FF0100C4FF0000C0B0EB8
:1010900004BF09020CF1080C0B0F04BF09010CF18D
:1010A000040C8B0F04BF89000CF1020CCB0F04BFA2
:1010B00049000CF1010CCCF12003A0EB0C0022FA4A
:1010C00003F302FA0CF241EA030100F10100704758
:1010D00020F07F4C80EA030023F07F47ACEB07034E
:1010E00003F57C5300F0004003F1FF032DE9804934
:1010F0004FEA154B09B44FEA144325EA0B4E24EA94
:1011000003480FF2042606EB132749083E785FEAEE
:10111000320203FB0667C7F5000707FB06F64FEA36
:1011200054374FEAD64606F1020607FB066CCCF1AF
:10113000005C4FEA1C472CEA074C07FB06F40CFB4B
:1011400006F504EB15464FEA961634BF00204FF023
:1011500000404FEAD13706FB07FC4FEA1C4C0CFB62
:101160000BF7D21B03FB0CF761EB07010CFB0EF72F
:10117000B0EB074072EB17420CFB08F734BFA2EB51
:101180000742B2EB074261EB17414FEA0C444FEACA
:10119000910706FB07FC4FEA1C4C0CFB0BF7B0EB6E
:1011A000C74072EB573203FB0CF734BFA2EBC742C8
:1011B000B2EBC74261EB57310CFB0EF7B0EBC70047
:1011C00072EB57720CFB08F734BFA2EBC702B2EB0D
:1011D000C70261EB5771039F4FEA816141EA9211A7
:1011E00004EBCC044FEAD1374FEA826206FB07FCDE
:1011F00042EA90124FEA80604FEA1C4C0CFB0BF75E
:10120000D21B03FB0CF761EB07010CFB0EF7B0EBF5
:10121000074072EB17420CFB08F734BFA2EB074202
:10122000B2EB074261EB17414FEA8C554FEA910749
:1012300004EB9C2406FB07FC4FEA1C4C0CFB0BF751
:10124000B0EBC74072EB573203FB0CF734BFA2EB95
:10125000C742B2EBC74261EB57310CFB0EF7B0EB64
:10126000C70072EB57720CFB08F734BFA2EBC70242
:10127000B2EBC70261EB577115EB4C254FEA816168
:1012800041EA92114FEA82624FEAD13742EA901264
:1012900006FB07FC44F100044FEA80604FEA1C4C57
:1012A0000CFB0BF7D21B03FB0CF761EB07010CFBEC
:1012B0000EF7B0EB074072EB17420CFB08F734BF98
:1012C000A2EB0742B2EB074261EB174115EB1C158D
:1012D0004FEA813141EA92414FEA823242EA90423A
:1012E0004FEA80304FEA0C7644F1000448EA0343A9
:1012F0004EEA0B484FF0000EB2EB080C71EB0307FF
:1013000024BF624639464EEB0E0E4FF0000B00181C
:10131000524149414BEB0B0BB2EB080C71EB03074D
:101320007BF1000B24BF624639464EEB0E0E4FF0A8
:10133000000B0018524149414BEB0B0BB2EB080C70
:1013400071EB03077BF1000B24BF624639464EEB7D
:101350000E0E51EA020718BF46F0010616EB0E7694
:1013600055F1000254F1000103D5BDE88901BDE843
:101370000088BDE88901BDE80048B619524141EB3B
:101380000101A3F10103704780807F7E7D7C7B7A21
:101390007978777676757473727171706F6E6E6D21
:1013A0006C6C6B6A6A6968686766666564646363C7
:1013B00062616160605F5F5E5E5D5D5C5C5B5B5A4D
:1013C0005A595958585757565655555554545353BA
:1013D00052525251515050504F4F4F4E4E4D4D4D15
:1013E0004C4C4C4B4B4B4A4A4A4949494848484760
:1013F000474747464646454545444444444343439E
:101400004342424242414141002B9C4630D4770046
:101410002BD01CB54FEA370703B44FF010004FF044
:101420001001BAF1000F06D0BCF1000FDCBF40F094
:10143000080040F008014FF000000FBCBDE810406C
:101440000BF1010BBBF1010F08BF5FEA170722BFC9
:1014500012F1010211F101014FF0004143F10003CB
:1014600000F0004043EA00007047F9D35708D0E786
:1014700046EA064613F1400F4FEA16461FDD13F108
:10148000200FDFBF16430A46002120335B42BED047
:10149000C3F1200746EA064602FA07F74FEA164666
:1014A00046EA0706C3F1200722FA03F201FA07F71A
:1014B00021FA03F14FF0000342EA0702A7E746EAE8
:1014C000020646EA06464FEA164646EA0106BCBF51
:1014D00046EA0646360C4FF000034FF000024FF08C
:1014E000000194E72DE9804C9A46934670B491E848
:1014F000380007C831EA400C48BF34EA430C03D532
:10150000FFF7E6FDFFF780FFF0BCBDE8008C2DE99A
:10151000804C9A46934670B491E8380007C810F0A2
:10152000804F08BF13F0804F03D100F005F8FFF79C
:101530006BFFF0BCBDE8008C20F07F4780EA030021
:1015400023F07F4C07EB0C03A3F57C5300F0004025
:10155000A3F1FE0392F0000F00F0B38095F0000FAE
:1015600000F077802DE901494FEA11404FEA144617
:1015700021EA004800FB06FC24EA064708FB06F6C1
:1015800007FB08F800FB07F718EB06484CEB164C76
:101590004FEA124B18EB07484FEA15464CEB174041
:1015A00022EA0B4E0BFB06FC25EA06470EFB06F66D
:1015B00007FB0EFE0BFB07F71EEB064E4CEB164C23
:1015C0004FF000061EEB074E4CEB174B18EB0B08C9
:1015D00040F1000018EB0E0B58EB000840F1000042
:1015E0008F1A4FF000013CBFC943661B14BFB5EB17
:1015F000040C00213CBFC943F61B4FEA17444EEAD6
:101600008E0E27EA04454FEA1C4704FB07622CEACA
:10161000074C05FB07F70CFB05F604FB0CFC16EB6F
:10162000074642EB174216EB0C4642EB1C421BEB03
:10163000060658EB0202414146EA9E0601D5BDE886
:101640000189B619524141EB0101A3F10103BDE843
:1016500001894FEA14454FEA114724EA054621EA79
:10166000074C05FB07F406FB07F70CFB06F105FB2F
:101670000CFC11EB074144EB17444FEA124711EB06
:101680000C4144EB1C4422EA074C05FB07F206FB25
:1016900007F70CFB06F605FB0CFC16EB074642EBC6
:1016A000174216EB0C4642EB1C456A1854F1000138
:1016B00048BF7047B619524141EB0101A3F1010344
:1016C000704795F0000F37D04FEA11424FEA1447A8
:1016D00021EA024624EA074C02FB07F106FB07F762
:1016E0000CFB06F402FB0CFC14EB074441EB174126
:1016F0004FEA154714EB0C4441EB1C4125EA074C1B
:1017000002FB07F506FB07F70CFB06F602FB0CFCD9
:1017100016EB074645EB174516EB0C4645EB1C420E
:10172000121951F1000148BF7047B619524141EBFF
:101730000101A3F1010370474FEA14454FEA114735
:1017400024EA054621EA074C05FB07F106FB07F7EB
:101750000CFB06F24FF0000605FB0CFC12EB0742F7
:1017600041EB174112EB0C4251EB1C4148BF704753
:10177000921841EB0101A3F101037047F8B505464A
:101780000E46002490208DF8000001208DF8010005
:101790008DF802608DF803500949086000F012F8D6
:1017A00000BF08E01DF8040000F04CF81E2000F017
:1017B000C1F8601CC4B2042CF4DB00F027F8F8BDBB
:1017C0009882404210B501200E49086040F23F2047
:1017D00000F0B0F801200C49C1F8980240F23F2017
:1017E00000F0A8F800200749086040F23F2000F010
:1017F000A1F800200449C1F8980240F23F2000F00F
:1018000099F810BD9C8240420080404210B50020F3
:101810000A49086040F23F2000F08CF80120084996
:10182000C1F8980240F23F2000F084F801200349FB
:10183000086040F23F2000F07DF810BD9C824042DD
:101840000080404270B50446002018490860002519
:101850001CE004F0800020B101201449091D08603B
:1018600003E000201149091D086001200F490860AC
:101870001E2000F05FF800200D49C1F898021E20DC
:1018800000F058F86006040E681CC5B2082DE0DBB5
:1018900001200649091D08600549C1F898021E206B
:1018A00000F048F800200149086070BD988240426D
:1018B0000080404270B50024002515E001201B493E
:1018C00008601E2000F036F86006040E1848D0F8B4
:1018D0001C0208B144F001040020144908601E20D5
:1018E00000F028F8681CC5B2082DE7DB00200F497E
:1018F00008601E2000F01EF800200D49C1F89C026F
:101900001E2000F017F80120084908601E2000F092
:1019100011F800200649C1F898021E2000F00AF8CC
:1019200001200249091D0860204670BD988240428E
:101930000080404200BF411E89B2081EFBD17047A3
:1019400010B54FF4A06000F071FDA82003F09CF8E2
:1019500001F098F84FF4E13004F046F802F040FE50
:1019600002F078FD02F09CFD03F048F805F0A8FCB9
:1019700003F0FCFF02F098FF02F0E0FF10BD70B52D
:101980000446606900280FDD6069002801DD606998
:1019900001E060694042054600EBD571481000F057
:1019A00043F8002002F09CF9606900280FDA6069B2
:1019B000002801DD606901E060694042054600EBF6
:1019C000D571481000F030F8012002F089F932207A
:1019D00004F02EFAA06900280FDDA069002801DDBF
:1019E000A06901E0A0694042054600EBD5714810AE
:1019F00000F01AF8002002F0AFF9A06900280FDA11
:101A0000A069002801DDA06901E0A0694042054607
:101A100000EBD571481000F007F8012002F09CF9A6
:101A200070BD00BFFEE7000070B52DED088B0546C8
:101A30000024B7EE000A444880ED000A9FED430AF7
:101A400080ED010A9FED420A80ED020AB1EE000A24
:101A500080ED030A90ED000AF0EE000A80EE201AF5
:101A6000B0EE418A90ED020AD0ED010A30EE600A34
:101A7000B0EE409A90ED000AF7EE000AB0EE001AC0
:101A800041EE000A00EE105AB8EE400A30EE600A4D
:101A9000BCEEC00A2F4880ED000A00BF47E02A488C
:101AA00090ED030AF1EE400A00EE104AB8EE400A4B
:101AB00030EE480A20EE800AC0EE080A10EE906A66
:101AC000304606F01DF941EC1B0BB0EE4B0AF0EE70
:101AD0006B0A02F061FAB0EE40AAF0EE60AA51EC97
:101AE0001A0B05F00FFC00EE100AF7EE000A70EE7C
:101AF000208A89EE280A1448D0ED010A30EE200A27
:101B0000154800EB840080ED000A134800EB8400C8
:101B100090ED000ADFED110A80EE801ABCEEC10ADA
:101B200010EE100A0E4921F81400601CC4B20648D9
:101B300090ED000ABCEEC00A10EE100AC0B2A0423E
:101B4000ADDCBDEC088B70BD545600200000FA439C
:101B500000C05A4508010020000100200024F4497B
:101B60000401002070470000D0E069480088B0F50B
:101B70007A7F03D100206749087041E064480088FB
:101B8000B0F5FA6F08D162484089B0F57A7F03D189
:101B900001206049087033E05D48008840F26C71B4
:101BA000884209DB5A48408940F2DC51884203D11F
:101BB00002205849087023E055488089B0F57A7FA3
:101BC00006D100205349487000215248C16017E0F7
:101BD0004F48808940F2DC51884206D101204D49AE
:101BE000487000214B48C1600AE04948808940F2B2
:101BF0006C71884204DB032046490870012048606C
:101C00004348008840F26C71884207DB40484089B5
:101C1000884203DB04203F4908700DE03E4800681D
:101C200004F06AFB64220021012002F053F9002233
:101C30001146104600F04CFE36480078052861D267
:101C4000DFE800F0030A26345B0000203349086017
:101C500048608860C86055E000212E488160407867
:101C600010B1012805D100E003E0322004F0E0F8D3
:101C700000BF00BF264B5A889988D88801F084FF9E
:101C8000264CE368A2686168206800F007FF39E02D
:101C90002048806848B91F48406830B901211D4874
:101CA00081601F48006800F05BFE2BE01948C068A7
:101CB00010BB1C490978491E01EB410202EBC1012E
:101CC000174A126802EB8100FFF759FE4FF4FA70D1
:101CD00004F0AEF8002407E0204601F093FF4FF433
:101CE000FA7004F0A5F8641C0E4800788442F3DB17
:101CF00001210848C16000BF04E00748006804F003
:101D00001DFA00BF00BF052004F092F82DE7000087
:101D1000445600206456002018000020745600200D
:101D20002001002028010020F0B50A4600210023F0
:101D3000002400BF3DE0012505FA01F3156805EA1E
:101D400003049C4234D105684F000326BE40B543CE
:101D5000056015794E00B540066835430560157974
:101D6000012D02D01579022D16D185684F0003266A
:101D7000BE40B543856055794E00B5408668354311
:101D80008560456801268E40B54345604568967973
:101D90008E40B6B235434560C5684F000326BE404D
:101DA000B543C560D5794E00B540C6683543C560BA
:101DB000491C1029BFD3F0BDF0B5002300244D0706
:101DC000ED0E02FA05F3CE1000F1200555F826506D
:101DD0004E07F70E0F26BE40B543CF1000F1200688
:101DE00046F82750CE1000F1200555F8265045EA58
:101DF0000304CE1000F1200545F82640F0BD4183D4
:101E000070470183704700BFFEE7000070B52DEDFD
:101E1000088B04460E46304605F0E1FC41EC1B0BF6
:101E200053EC1B2B9FED4B0B51EC100B05F050FBB3
:101E300041EC1A0B9FED490B53EC102B05F036FDCE
:101E400041EC190B9FED470B53EC102B05F02EFDC9
:101E500041EC180B05F056FA4449086000EE104AB0
:101E6000B8EEC00A4248D0ED000AB4EEE00AF1EE46
:101E700010FA2CDD00EE104AB8EEC00AD0ED000AD0
:101E800030EE600A0846D0ED000A20EE200ADFEDB1
:101E9000390A80EE201ABDEEC10A10EE105A324601
:101EA0000A21012002F016F832220A21002000F057
:101EB0000FFD284603F0BCFF00221146012002F06E
:101EC00009F800221146104600F002FD37E000EE4E
:101ED000104AB8EEC00A2648D0ED000AB4EEE00A77
:101EE000F1EE10FA2BD2D0ED000A00EE104AB8EE57
:101EF000C00A30EEC00A1D48D0ED000A20EE200ACC
:101F0000DFED1C0A80EE201ABDEEC10A10EE105A59
:101F100032460A21002001F0DDFF32220A21002092
:101F200000F0D6FC284603F083FF0022114610463D
:101F300001F0D0FF00221146104600F0C9FC00EE6F
:101F4000104AB8EEC00A0A4880ED000ABDEC088BC2
:101F500070BD000055555555555505400000000011
:101F600000004E400000000000408F403001002083
:101F70002C0100200000A04270B50246002400257C
:101F800000230020958A138B1B0445EA030626F0E4
:101F90007F4404EA01068E4201D1012000E00020C6
:101FA00070BD21B1028842F00102028004E0028883
:101FB0004FF6FE731A4002807047000010B50446C9
:101FC0001348844209D10121480500F0EDFB0021AE
:101FD0004FF4001000F0E8FB18E00E48844209D1ED
:101FE0000121880500F0E0FB00214FF4800000F0A3
:101FF000DBFB0BE00848844208D10121C80500F052
:10200000D3FB00214FF4000000F0CEFB10BD000018
:102010000054004000580040005C004021B102889C
:1020200042F48072028004E002884FF6FF631A4097
:102030000280704721B1028842F40072028004E0FD
:1020400002884FF6FF531A40028070470CB50246D3
:10205000002000230193009300920B0F019321F0C5
:102060007F41019B1BB1009B1433009303E0090CDB
:10207000009B18330093009B1B680B400BB10120A1
:1020800000E000200CBD00002DE9FF4704460D468E
:102090000026B1460427DFF8CC80A6884FF6C07032
:1020A0000640684600F0A0FBDDF808802E48B8FB2B
:1020B000F0F01FFA80F946EA0906A68020884FF65C
:1020C000FE710840208000262849286888420CD8E4
:1020D00028684000B8FBF0F087B2042F00DA04272C
:1020E0003E4309F10100208427E0E8884BF6FF71A8
:1020F000884206D1286800EB4000B8FBF0F087B2B8
:1021000009E0286800EBC00101EB0010B8FBF0F01B
:1021100087B247F48047C7F30B0008B947F00107BF
:1021200047F4004006434FF4967009FB00F04FF46B
:102130007A7190FBF1F0401C2084A683208840F047
:102140000100208026884FF6F5300640A88869896E
:10215000084306432680A889298908432081BDE8D1
:10216000FF87000000127A0040420F00A0860100A5
:1021700012B141F0010101E001F0FE01018270475E
:102180000182704770B504460D4600BF4FF4003120
:102190001C48FFF75BFF0028F8D101211948FFF721
:1021A0003DFF00BF18491748FFF7E6FE0028F9D0A9
:1021B000002278211348FFF7DBFF00BF13491148C5
:1021C000FFF7DAFE0028F9D021460E48FFF7D8FFC6
:1021D00000BF0E49891C0B48FFF7CEFE0028F8D03F
:1021E00029460848FFF7CCFF00BF0849891C05486D
:1021F000FFF7C2FE0028F8D001210248FFF71AFFBE
:1022000070BD000000540040010003008200070080
:102210002DED068BB2B0642119A8FEF738FA6421BF
:102220006846FEF734FA002004F066F897E00A22C8
:102230001146002001F04EFE8221EB2002F0B6FC98
:102240000446B4F5004F06DBB4F5803F03DA4FF6E1
:10225000FF70041B04E04FF6FF70844200DB002493
:10226000204605F0D3FA41EC1A0B9FED3D0B53ECE1
:10227000102B05F01BFB41EC190B9FED3B0B53ECB6
:10228000102B05F025F941EC180B05F03BF8384907
:102290000860084690ED000AF7EE000AB4EEE00A86
:1022A000F1EE10FA25DB14220A21002000F010FBC9
:1022B0002F48006805F024FD41EC180B53EC182B57
:1022C0002CA16846FEF76CF810236A4630210020E6
:1022D00000F02FFA00221146104601F0FBFD4FF4EA
:1022E000FA6003F0A5FD0A221146002001F0F2FD7C
:1022F00016E05A220A21002000F0EAFA1C48006881
:1023000005F0FEFC41EC180B53EC182B19A16846A4
:10231000FEF746F810236A463021002000F009FA43
:102320000C2316A20021084600F0ECF90C2317A29A
:102330000021084600F0E6F90C2318A21021002025
:1023400000F0E0F9102318A219463C2000F0F1F942
:102350004FF4FA7002F0BAFB642003F069FD66E7FF
:10236000FCA9F1D24D62204000000000E0FFEF40E8
:10237000F0020020463A252E32660000B9E3B6ABE3
:10238000B9A4D2B5B4F3D1A700000000C3EECAD6F9
:10239000D6C7C1AACDC5B6D300000000B5B1C7B03D
:1023A000D7AACBD9CEAA00003A00000000BFFEE7B2
:1023B0007047000070B5002100230F22C4781CB3C1
:1023C000174C246804F4E064C4F5E064C4F3072106
:1023D000C1F10404E3B20A4144789C40E1B284783C
:1023E000144021430C07210E0E4C057861550478EA
:1023F00004F01F050124AC4005786D11AD0005F116
:10240000E025C5F8004109E0047804F01F05012427
:10241000AC40054D0678761145F8264070BD0000A9
:102420000CED00E000E400E080E100E0024901433F
:10243000024A1160704700000000FA050CED00E050
:1024400070B5002415E004F1B001C8B200F014F832
:10245000002000F011F8102000F00EF8002504E034
:10246000002000F010F8681CC5B2802DF8DB601C5D
:10247000C4B2082CE7DB70BD10B50446214600202D
:10248000FFF780FE10BD10B5044621464020FFF73F
:1024900079FE10BD70B504460D4605F1B001C8B215
:1024A000FFF7EAFF102141EA1410FFF7E5FF04F0FF
:1024B0000F0141F00100FFF7DFFF70BD2DE9F05F74
:1024C0002DED068B82460D4617461C464FF0000840
:1024D000BAF17F0F02DDC246A81CC5B200266CE02F
:1024E000304605F093F941EC1A0B9FED360B53EC97
:1024F000102B05F0DBF941EC180B204605F086F9AE
:1025000041EC1A0B9FED310B53EC102B04F0E0FF64
:1025100041EC190B53EC182B05F08CF903D8BDECEA
:10252000068BBDE8F09FAB46E81705EB507006EB55
:10253000E000C1B25046FFF7ADFF4FF0000935E0B3
:102540000C2C0ED1A7F1200101EB4101214A02EB35
:10255000810341464A1C1FFA82F8585CFFF793FF3B
:1025600020E0102C0CD1A7F120011B4A02EB011333
:1025700041464A1C1FFA82F8585CFFF784FF11E0BD
:10258000182C0ED1A7F1200101EBC101134A02EB77
:10259000810341464A1C1FFA82F8585CFFF773FF1B
:1025A00000E0BCE709F1010000F0FF0904EBD47181
:1025B000B9EB610FC4DB701CC6B2082E90DB00BF04
:1025C000ADE70000000000000000F03F0000000048
:1025D000000020402E870008A28B0008929100087E
:1025E0002DE9FF5F2DED068B0F4690461D464FF0FF
:1025F000000A002475E098F80000C4EBC40101EB68
:1026000081013A4A515C884269D198F80100C4EBD3
:10261000C40101EB81011144497888425FD1002651
:102620005AE0304605F0F2F841EC1A0B9FED300B02
:1026300053EC102B05F03AF941EC180B284605F045
:10264000E5F841EC1A0B9FED2C0B53EC102B04F02A
:102650003FFF41EC190B53EC182B05F0EBF803D8B6
:10266000BDEC068BBDE8FF9FBB46F81707EB50702B
:1026700006EBE000C1B20698FFF70CFF4FF000092F
:1026800026E00C2D0ED104EBC40101EB41011C4AE4
:102690001144C91C5246531C1FFA83FA885CFFF789
:1026A000F2FE11E0102D0ED1C4EBC40101EB81014B
:1026B0000E4A1144C91C5246531C1FFA83FA885C07
:1026C000FFF7E1FE00E0CBE709F1010000F0FF09B0
:1026D000A945D6DB701CC6B2022EA2DBC0E7601C87
:1026E000C4B2642C87DB00BFBAE70000FA7D0008A3
:1026F000000000000000F03F00000000000020404B
:102700002C8300082DE9F0410546884614461E46F4
:10271000002709E0E919C8B2334622464146FFF7CF
:102720005FFFB81987B2A41C20780028F2D1BDE859
:10273000F0812DE9F0410746884614461D460026E3
:102740000DE0A25D2B4641463846FFF7B7FE701CF0
:10275000C6B2284605EBD07107EB6101CFB2A05D90
:102760000028EED1BDE8F08129B1064A1268024383
:10277000044B1A6004E0034A12688243014B1A605A
:10278000704700003038024029B1064A12680243FF
:10279000044B1A6004E0034A12688243014B1A603A
:1027A000704700004038024029B1064A12680243CF
:1027B000044B1A6004E0034A12688243014B1A601A
:1027C000704700002038024029B1064A12680243CF
:1027D000044B1A6004E0034A12688243014B1A60FA
:1027E0007047000044380240F0B500210022002468
:1027F000022500260223324F3F6807F00C0121B169
:10280000042905D0082937D105E02E4F076036E0AE
:102810002D4F076033E02A4F3F1F3F68C7F38056B4
:10282000274F3F1F3F6807F03F036EB1264FB7FBAE
:10283000F3F7DFF88CC0ACF1040CDCF800C0CCF38B
:10284000881C07FB0CF40CE01E4FB7FBF3F7DFF816
:1028500070C0ACF1040CDCF800C0CCF3881C07FBA2
:102860000CF4174F3F1F3F68C7F301477F1C7D00E3
:10287000B4FBF5F7076002E0124F076000BF00BF2E
:102880000F4F3F6807F0F0010909104F7A5C0768A5
:10289000D74047600A4F3F6807F4E051890A0B4F61
:1028A0007A5C4768D7408760054F3F6807F460410E
:1028B000490B064F7A5C4768D740C760F0BD0000FF
:1028C000083802400024F40000127A003C00002086
:1028D00070B506460C461546012E04D1082106485F
:1028E000FFF78DFA03E008210348FFF78AFA03494E
:1028F0000C8003490D8070BD0000024014010020CF
:102900001601002008B5002000900120134908603E
:10291000FEF758FF9020FEF795FF0020FEF792FF8C
:10292000FEF774FFFEF74EFF9120FEF78BFFFEF7D8
:10293000C1FFADF80000FEF7BDFFADF80200FEF7E5
:1029400065FFBDF80200BDF8001040EA012080B22A
:10295000ADF80000BDF8000008BD000098824042BC
:1029600043490968434A127802EB420303EBC2026F
:1029700000EB8202516140490968002902DD3E49AD
:10298000096802E03C49096849423A4A127802EB78
:10299000420303EBC20200EB8202116237490A686C
:1029A0003449097801EB410303EBC10100EB8101DC
:1029B0008A6133490968002902DD3149096802E06A
:1029C0002F49096849422B4A127802EB420303EB74
:1029D000C20200EB820291622749096800290DDDDD
:1029E00001222449097801EB410303EBC10100EB0B
:1029F0008101CA610021204A116010E01E49096866
:102A000000290CDA00221B49097801EB410303EB92
:102A1000C10100EB8101CA610021174A1160184908
:102A2000096800290DDD01221249097801EB4103F3
:102A300003EBC10100EB81014A620021104A1160E1
:102A400010E00F49096800290CDA002209490978C9
:102A500001EB410303EBC10100EB81014A6200215C
:102A6000074A116003490978491C024A11707047EE
:102A7000EC00002028010020E4000020F0000020ED
:102A8000E800002000200449087048600021024846
:102A90008160C16070470000645600202DE9F0415C
:102AA00004460D4616461F46002C02DD012001F0AB
:102AB00017F9002C02DA002001F012F9002D02DDD6
:102AC000012001F049F9002D02DA002001F044F95B
:102AD000002E0CDD64220A21012001F0FBF93220D6
:102AE00003F0A6F900221146012001F0F3F9002EAF
:102AF0000CDA64220A21002001F0ECF9322003F004
:102B000097F900221146104601F0E4F9BDE8F08182
:102B10000CB50020019000903448006840F48030EB
:102B20003249086000BF3148006800F4003000906E
:102B30000198401C0190009818B90198B0F5A04F79
:102B4000F1D12A48006800F4003010B10120009053
:102B500001E0002000900098012846D12348403031
:102B6000006840F0805021494031086020480068EA
:102B700040F440401E4908601C48083000681B496A
:102B8000083108600846006840F4004008600846C4
:102B9000006840F4A05008601648091F0860081F2C
:102BA000006840F08070091F086000BF0F4800688F
:102BB00000F000700028F9D040F205700E4908605E
:102BC0000A480830006820F003000849083108600E
:102BD0000846006840F00200086000BF0348083063
:102BE000006800F00C000828F8D10CBD0038024045
:102BF0000070004008544007003C0240042808D1FF
:102C00004FF0E021096941F004014FF0E022116129
:102C100007E04FF0E021096921F004014FF0E022C4
:102C20001161704710B504F08FF8012802D003F04D
:102C3000F9FC04E002480068401C0149086010BD2E
:102C40002000002010B51548006840F470001349BA
:102C500008601348006840F0010011490860002036
:102C60000F49083108600E4800680E4908400C49B9
:102C700008600D48091D0860081F006820F48020C6
:102C8000091F0860002006490C310860FFF740FF6B
:102C90004FF0006001498039086010BD88ED00E008
:102CA00000380240FFFFF6FE10300024F0B50C465D
:102CB000154600210022068C4FF6FE773E40068422
:102CC000018B028C4FF60C7631407E1C06EA03160F
:102CD0002E4331434FF6F576324044F0010632433D
:102CE00001830284F0BDF0B50C4615460021002298
:102CF0000026078C4FF6EF7C07EA0C070784018B50
:102D0000028C4FF6FF7707EA041640F6FF4739407A
:102D10004FF6FF7707EA033739434FF6FF7707EAA5
:102D2000052739434FF65F773A4046F010073A439C
:102D300001830284F0BDF0B50C4615460021002247
:102D40000026078C4FF6FF6C07EA0C070784818B7F
:102D5000028C4FF6FF7707EA04264FF60C773940CE
:102D60004FF6FF7707EA03172F4339434FF2FF5718
:102D70003A4046F480773A4381830284F0BDF0B54F
:102D80000C461546002100220026078C4EF6FF7CDB
:102D900007EA0C070784818B028C4FF6FF7707EA5E
:102DA000043640F6FF4739404FF6FF7707EA05271C
:102DB00039434FF6FF7707EA0337394345F6FF7784
:102DC0003A4046F480573A4381830284F0BD0000C4
:102DD00010B58C48008A00F0020000283ED04FF663
:102DE000FD70884908824FF6FF50088286480069C6
:102DF00000F4007028B1084600F049FC83490880BF
:102E00002CE0804800F043FC814908800846008897
:102E10007E490988884207DB7D4800887B4909880C
:102E2000401A7C49C8810AE0784800884FF6FF7153
:102E3000081A774909880844401C7649C8817548B2
:102E4000C089B0F5FA7F05DB7248C08940F6C4112D
:102E5000884203DD4FF47A706E49C8816948008A60
:102E600000F00400F0B34FF6FB70664908824FF69D
:102E7000FF3008826448006900F4006028B1084609
:102E800000F008FC644908802EE05E4800F002FC77
:102E900062490880084600885F490988884207DB44
:102EA0005E4800885C490988401A5A4988810AE0CE
:102EB000594800884FF6FF71081A58490988084494
:102EC000401C5449888153488089B0F5FA7F05DB5E
:102ED0005048808940F6C411884205DD4FF47A706D
:102EE0004C4900E000E088814648008A00F0080074
:102EF000F0B34FF6F770434908824FF2FF70088233
:102F00004148006900F4005028B1084600F0C5FBB4
:102F1000434908802EE03B4800F0BFFB4149088050
:102F2000084600883E490988884207DB3D480088FA
:102F30003B490988401A374948810AE038480088E7
:102F40004FF6FF71081A374909880844401C314977
:102F5000488130484089B0F5FA7F05DB2D4840892B
:102F600040F6C411884205DD4FF47A70294900E02B
:102F700000E048812348008A00F01000F0B34FF6CB
:102F8000EF70204908824EF6FF7008821E480069E3
:102F900000F4804028B1084600F082FB22490880F6
:102FA0002EE0184800F07CFB204908800846008885
:102FB0001D490988884207DB1C4800881A4909888E
:102FC000401A144908810AE0174800884FF6FF713B
:102FD000081A164909880844401C0E4908810D4802
:102FE0000089B0F5FA7F05DB0A48008940F6C41174
:102FF000884205DD4FF47A70064900E000E0088160
:1030000010BD00000000014000100240C000002080
:10301000C200002044560020C4000020C60000204A
:10302000C8000020CA000020CC000020CE000020F4
:103030007FB505460C46681E80B2ADF80400601EE0
:1030400002900020ADF80C00ADF8060001A94FF089
:10305000804000F051FC01221146900700F06BFB0C
:103060001C208DF8000001208DF8010003208DF850
:10307000020001208DF803006846FFF79BF901214B
:10308000880700F0F8FA7FBD10B50121880700F02D
:103090000AFB012826D116480068401C1449086024
:1030A0000846006813490988884204D2042112485E
:1030B000FEF7A7FE09E00E4800680E49098888421D
:1030C00003D904210C48FEF79AFE0C4800884FF4FF
:1030D0007A7191FBF0F006490968884202D200201B
:1030E000034908600121880700F0C2FA10BD000002
:1030F00018010020140100200000024016010020E9
:1031000010B52DED028B002008EE100A0221804838
:1031100000F0C9FA002867D002217D4800F0A8FA23
:103120007B4800F0B4FA80B208EE100A79480068D3
:10313000401C7849086078480068002809DD774815
:103140000068401C7549086075480068401C744957
:10315000086071480068002809DA70480068401E5D
:103160006E4908606E480068401E6D4908606A48F4
:103170004068002809DD6B480068401C6949086008
:1031800069480068401C6849086063484068002836
:1031900009DA64480068401E6249086062480068B5
:1031A000401E614908605B48007800F0010000287B
:1031B0001AD15E480078012835D15D480068401C6E
:1031C0005B4908600846006878B90968491E594A91
:1031D00032F8110000EBD071491000EE101AB8EE71
:1031E000C00A554981ED000A70E051490968491E3D
:1031F000504A32F8110000EBD071491000EE101A5D
:10320000B8EEC00A4C4981ED000A4C48006818B17C
:1032100002204649087002E003204449087000205B
:103220004349086052E04148007802281DD14048D7
:103230000068401C3E4908603E49088800EBD07198
:10324000491000EE101AB8EEC00A3B4981ED000AA1
:103250003748006839490968884237D10320334923
:10326000087000203249086030E0304800780328B8
:103270002CD12F480068401C2D4908600846006882
:10328000022810D20968C1F101012A4A32F811005E
:1032900000EBD071491000EE101AB8EEC00A2649B2
:1032A00081ED000A12E000220221194800F043FAE1
:1032B00000220421164800F03EFA0021144800F0D4
:1032C000DAF900201A49086018490870B8EE480A6F
:1032D0001948D0ED000A30EE200ABCEEC00A10EE0C
:1032E000100A81B20A4800F0D6FAB8EE480A12482D
:1032F000D0ED000A30EE200ABCEEC00A10EE100A33
:1033000081B2034800F0C9FABDEC028B10BD000089
:1033100000040040E000002074560020E40000207B
:10332000EC000020E8000020F0000020F800002061
:10333000F4000020040100201C01002008010020EE
:1033400010B59048008800F00200002840D04FF6E9
:10335000FD708C4908804FF6FF5008808A4800684D
:1033600000F4805030B18748103800F090F9874958
:1033700008802DE08348103800F089F984490880DE
:103380000846008881490988884207DB8048008810
:103390007E490988401A7F4908800AE07B480088F6
:1033A0004FF6FF71081A7A4909880844401C794988
:1033B000088078480088B0F5FA7F05DB75480088FA
:1033C00040F6C411884203DD40F2DC5071490880A8
:1033D0006C48008800F00400E8B34FF6FB706949C0
:1033E00008804FF6FF3008806748006800F40050FE
:1033F00030B16448103800F04DF9674908802FE07B
:103400006048103800F046F9644908800846008892
:1034100061490988884207DB604800885E4909885D
:10342000401A5C4948800AE05B4800884FF6FF710B
:10343000081A5A4909880844401C5649488055488A
:103440004088B0F5FA7F05DB5248408840F6C41149
:10345000884205DD00E003E040F2DC504D49488041
:103460004848008800F00800E8B34FF6F770454977
:1034700008804FF2FF7008804348006800F48040E5
:1034800030B14048103800F008F9454908802FE075
:103490003C48103800F001F942490880084600888D
:1034A0003F490988884207DB3E4800883C49098833
:1034B000401A384988800AE0394800884FF6FF7181
:1034C000081A384909880844401C32498880314824
:1034D0008088B0F5FA7F05DB2E48808840F6C4115D
:1034E000884205DD00E003E04FF47A7029498880C6
:1034F0002448008800F01000E8B34FF6EF7021492F
:1035000008804EF6FF7008801F48006800F40040F5
:1035100030B11C48103800F0C3F8234908802FE070
:103520001848103800F0BCF8204908800846008888
:103530001D490988884207DB1C4800881A49098808
:10354000401A1449C8800AE0174800884FF6FF71F6
:10355000081A164909880844401C0E49C8800D48BD
:10356000C088B0F5FA7F05DB0A48C08840F6C41170
:10357000884205DD00E003E040F2DC500549C880E8
:1035800010BD000010080040100C0240D0000020C8
:10359000D200002044560020D4000020D600002095
:1035A000D8000020DA000020DC000020DE0000202F
:1035B00010B50121214800F076F8012838D12048C3
:1035C0000068401C1E490860084600681D490988BB
:1035D000884204D201211C48FEF713FC09E0184878
:1035E000006818490988884203D901211648FEF766
:1035F00006FC164800884FF47A7191FBF0F01049F0
:103600000968884202D200200D490860104880688D
:10361000002804DD0F480068401C0E4908600C4873
:103620008068002804DA0B480068401E09490860D9
:103630000121024800F01CF810BD0000000C004001
:10364000100100200C010020000002400E010020AB
:1036500074560020FC00002021B1028842F0800254
:10366000028004E002884FF67F731A4002807047A0
:10367000CA430282704721B1028842F001020280EF
:1036800004E002884FF6FE731A400280704701463C
:10369000486B70470146886B70470146C86B70479E
:1036A0000146086C704730B5024600200023002414
:1036B000158A05EA0103958905EA010413B10CB1E5
:1036C000012000E0002030BD70B505460C46208882
:1036D00050B92389A28861882846FFF7E7FAE18874
:1036E000284600F0DCF825E0208804280AD1238948
:1036F000A28861882846FFF7F6FAE188284600F09C
:10370000D7F817E0208808280AD12389A288618881
:103710002846FFF710FBE188284600F0D6F809E0BC
:103720002389A28861882846FFF729FBE18828467B
:1037300000F0D4F870BD1AB183890B43838102E095
:1037400083898B438381704770B500240022002356
:10375000058C4FF6FE7635400584028C8388048BF9
:103760004FF68F752C40B51E2C400D882C43751ECE
:103770002A408D892A434D882A43104DA84202D001
:103780000F4DA84213D14FF6F7752A40CD892A4331
:103790004FF6FB752A408D882A434FF6FF652B4074
:1037A0004FF6FF552B400D8A2B434D8A2B438380C8
:1037B00004838D684563028470BD000000000140F1
:1037C000000401400A460021018B4FF6F7731940AF
:1037D000114301837047000070B5002400220023CC
:1037E000058C4FF6EF7635400584028C8388048B78
:1037F00048F6FF752C404FF6FF452C400D884FF6DC
:10380000FF7606EA05252C434FF6DF752A408D89A1
:1038100006EA05152A434D8806EA05152A43154D83
:10382000A84202D0144DA8421DD14FF67F752A4000
:10383000CD894FF6FF7606EA05152A434FF6BF7588
:103840002A408D8806EA05152A434FF6FF352B409E
:103850004FF2FF752B400D8A06EA85052B434D8AF2
:1038600006EA85052B43838004838D688563028483
:1038700070BD000000000140000401400A46002124
:10388000018B4FF2FF7319404FF6FF7303EA0223D7
:103890001943018370474163704781637047028B0E
:1038A0004FF6F3731A400283028B0A430283704778
:1038B000028B4FF2FF331A400283028B4FF6FF73E5
:1038C00003EA01231A4302837047828B4FF6F37396
:1038D0001A408283828B0A4382837047828B4FF225
:1038E000FF331A408283828B4FF6FF7303EA012372
:1038F0001A4382837047000000220288184B9842C6
:103900000ED0184B98420BD0B0F1804F08D0164B18
:10391000984205D0154B984202D0154B984204D1DD
:103920004FF68F731A404B881A43124B984207D0B8
:10393000114B984204D04FF6FF431A400B891A43AB
:1039400002804B68C3620B880385054B984202D006
:10395000044B984201D18B7A0386012383827047FE
:103960000000014000040140000400400008004045
:10397000000C0040001000400014004010B540F260
:103980002551084800F03FF8012809D1054800F00A
:10399000F3F80549086040F22551024800F018F894
:1039A00010BD0000001001403400002010B540F2AE
:1039B0002551054800F027F820B1034800F0DCF855
:1039C0000249087010BD00000014014032000020C0
:1039D00010B50022002340F66A14A14200D100BFB6
:1039E0000A1201249440A3B2DC43048010BD21B12B
:1039F000828942F40052828104E082894DF6FF738D
:103A00001A408281704770B50246002400230025C9
:103A1000002040F66A16B14200D100BFC1F3421542
:103A200001F01F03012606FA03F3012D02D1968946
:103A3000334006E0022D02D1168A334001E0968A17
:103A400033400C12012606FA04F41688344013B1F0
:103A50000CB1012000E0002070BDF0B50346002449
:103A600000260025002040F66A17B94200D100BFA9
:103A70001846C1F3421401F01F06012707FA06F5A4
:103A8000012C01D10C3004E0022C01D1103000E0F7
:103A900014301AB107682F43076002E00768AF438C
:103AA0000760F0BD2DE9FF4705460E460024A146FC
:103AB00000BFA046B08900B100BF2C8A24F4405456
:103AC000F08804432C82AC8941F20C608443B088B6
:103AD00031890843718908430443AC81AC8A24F4DA
:103AE0004074B0890443AC826846FEF77DFE2048EE
:103AF000854202D01F48854202D1DDF80C9001E0DA
:103B0000DDF80890A88900F4004040B109EBC90035
:103B100000EB091031684900B0FBF1F707E009EB51
:103B2000C90000EB091031688900B0FBF1F764208F
:103B3000B7FBF0F004012009642101FB1078A8898B
:103B400000F4004040B1322000EBC800B0FBF1F0BF
:103B500000F00700044308E0322000EB0810642165
:103B6000B0FBF1F000F00F0004432C81BDE8FF87AB
:103B7000001001400014014001468888C0F308008D
:103B8000704700BFFEE7000010B5A0F2DC53002B29
:103B900000DD02E040F2DC531B1A642B04DDA0F2CE
:103BA000DC53174C236002E00023154C2360A1F284
:103BB000DC53002B00DD02E040F2DC535B1A642B87
:103BC00004DDA1F2DC530E4C636002E000230C4CD8
:103BD0006360A2F2DC53002B00DD02E040F2DC5314
:103BE0009B1A642B04DDA2F2DC53054CA36002E0B7
:103BF0000023034CA3600023014CE36010BD0000D0
:103C000074560020F8B5044604EB440000EBC400F1
:103C10003249096801EB8000056A05EBD57148104F
:103C2000FDF702FF04EB440101EBC4012B4A1268CB
:103C300002EB8101C86900F053F84FF4FA7002F00A
:103C4000F7F804EB440000EBC4002449096801EBD9
:103C50008000856A05EBD5714810FDF7E5FE04EBA1
:103C6000440101EBC4011D4A126802EB8101486A5C
:103C700000F072F84FF4FA7002F0DAF804EB440046
:103C800000EBC4001549096801EB8000006904EBF2
:103C9000440505EBC405114E0090366806EB85051A
:103CA000EB6804EB440505EBC4050C4E366806EBE7
:103CB0008505AA6804EB440505EBC405074E366884
:103CC00006EB8505696804EB440505EBC405034E66
:103CD000366856F8250000F07BF8F8BD200100207A
:103CE00010B50446002017490860012016490870E5
:103CF000012C08D110211548FEF783F81021144833
:103D0000FEF77FF807E010211048FEF778F8102141
:103D10000F48FEF774F802210E48FFF7A9FC0421B2
:103D20000C48FFF7A5FC012202210A48FFF703FD1A
:103D3000012204210748FFF7FEFC01210548FFF797
:103D40009AFC10BDF4000020F800002000000240A2
:103D5000000802400004004010B504460020174946
:103D60000860012016490870012C08D1102115485F
:103D7000FEF747F810211448FEF741F807E010213C
:103D80001048FEF73CF810210F48FEF73AF80221E0
:103D90000E48FFF76DFC04210C48FFF769FC012277
:103DA00002210A48FFF7C7FC012204210748FFF758
:103DB000C2FC01210548FFF75EFC10BDF4000020A5
:103DC000F80000200008024000000240000400400B
:103DD0002DE9F0472DED028B05460E4617461C4691
:103DE000DDF8289005F11E0821464046FEF70EF842
:103DF000354890ED000A9FED351AC0EE010AA8F192
:103E0000190000EE100AB8EEC00A20EE800ABDEEDE
:103E1000C00A10EE10AA2C48D0ED000A9FED2B1A14
:103E200080EE810AF3EE090A20EE200AB0EE408A05
:103E3000012F35D1304601F0FBFF642001F0F8FF7F
:103E400022460A21002000F045F832220A210020F3
:103E5000FEF73EFD504601F0EBFF002211461046F2
:103E600000F038F8484601F0E3FF22460A2101201D
:103E700000F030F8BCEEC80A10EE100A01F0D8FFCE
:103E800000221146012000F025F8002211460120F1
:103E9000FEF71EFDB2EE040A0D4880ED000A0FE0A9
:103EA00032220A210020FEF713FD304601F0C0FF48
:103EB000002211460120FEF70BFD642001F0B8FF3F
:103EC000BDEC028BBDE8F087300100200000A0426D
:103ED0002C01002070B506460C461546012E04D173
:103EE00002210648FDF78BFF03E002210348FDF79E
:103EF00088FF03490C8003490D8070BD000002401B
:103F00000C0100200E0100207FB505460C46681EFE
:103F100080B2ADF80400601E02900020ADF80C00E5
:103F2000ADF8060001A90E48FFF7E6FC0122114694
:103F30000B48FFF700FC32208DF8000001208DF8BF
:103F4000010002208DF8020001208DF80300684670
:103F5000FEF730FA01210248FFF78DFB7FBD00001C
:103F6000000C004003B401984100009850EAC120C1
:103F700018BF04204A0D18BF40F0010040F2FF7244
:103F8000B2EB515F08BF40F00200012808BF0520D6
:103F900002B070470000000070B52DED020B2DED52
:103FA0000A8B82B00D98C40F20F00045AE488542C0
:103FB00048D3AE48854219D30C99C5F31300084382
:103FC00009D09DED0C0B02B0BDEC0A8B02B0BDE830
:103FD000704000F009BA002C14BF9FEDA50B9DEDB9
:103FE0000C0B02B0BDEC0A8B02B070BD9FEDA20BB2
:103FF00053EC102B9DED0C0B51EC100B03F054FD0A
:104000000AD20220FCF773FB02B0BDEC0A8B02B0AF
:10401000BDE8704000F0F4B99FED990B53EC102B04
:104020009DED0C0B51EC100B03F004FC0AD20220A6
:10403000FCF75DFB02B0BDEC0A8B02B0BDE870403E
:1040400000F0EEB990489FED92BBA8425CD2924836
:10405000854219D29148784400EBC40090ED000BE2
:1040600053EC102B9DED0C0B51EC100B03F05EFD8F
:1040700041EC1A0B8A48784400EBC40090ED009B99
:10408000C4F10100041B36E09FED870B53EC102BAD
:104090009DED0C0B51EC100B03F008FC41EC100BE8
:1040A0008348784400EBC40090ED001B51EC100BEA
:1040B00053EC112B03F058F903F062FB044603F0B4
:1040C0008EFB41EC180B9FED7C0B53EC102B03F097
:1040D000EDFB9DED0C1B53EC112B03F01BFD41EC94
:1040E0001A0B9FED770B51EC180B53EC102B03F0D0
:1040F000DDFB41EC190B51EC1A0B53EC192B03F0BF
:1041000015FDCDE90C011BE06F48854217D29FEDEC
:10411000700B53EC102B9DED0C0B51EC100B03F0BE
:1041200023F953EC1B2B03F0BFFC08D29DED0C0BC5
:1041300053EC1B2B51EC100B03F016F96EE000242E
:104140009DED0C0B53EC102B51EC100B03F0AEFB60
:1041500041EC180B60480521B0EE480AF0EE680A01
:10416000784400F0C5F853EC182B51EC100B03F019
:104170009DFB9DED0C1B53EC112B03F0CBFC41EC94
:10418000180B9FED570B5CB353EC182B51EC100B35
:1041900003F0CCFC9DED0C0B41EC1C0B53EC182BED
:1041A00051EC100B03F082FB53EC1C2B03F090F945
:1041B00053EC192B03F0AEFC53EC1A2B03F0B6FCB6
:1041C00053EC1B2B03F0A6FCCDE900016FF47F70CC
:1041D000844226DB01EB045001909DED000B00E7CB
:1041E00053EC102B51EC180B03F0A0FC9DED0C0BC5
:1041F00041EC190B53EC182B51EC100B03F056FB50
:1042000053EC192B03F064F99DED0C1B53EC112BAF
:1042100003F08CFC53EC1B2B03F07CFC41EC100BEB
:10422000DFE608464FF07A5101EB04519FED2E0B6B
:10423000084453EC102B01909DED000B51EC100B3A
:1042400003F034FB0D4645EC100B044651EC100B0B
:10425000FFF788FE042808BF00F0E2F845EC104B99
:10426000BFE6000000000000422E86400000F07F04
:104270000000000000000000EF39FAFE422E8640E8
:1042800051302DD5104987C0422ED63F0000000086
:10429000000000000000F03FB2A2F03FA65E000068
:1042A000965E000000000000FE822B654715F73F78
:1042B0004A5E0000000000000000E0FE422EE63FE3
:1042C000763C7935EF39EA3D0000303E00000000D1
:1042D0009C7500883CE4377EBC5D00000000000057
:1042E000000000000000004000000000000070011D
:1042F00070B504462DED028B4D1E00EBC500B0EEEF
:10430000408AF0EE608A90ED000B35F0060017D081
:1043100053EC182B51EC100B03F0C8FA41EC100BC6
:104320006D1E04EBC50090ED001B51EC100B53EC1F
:10433000112B03F019F841EC100B35F00600E7D112
:10434000022D36D0042D1CD0062D1CBFBDEC028BD7
:1043500070BD53EC182B51EC100B03F0A7FA94ED41
:104360000A1B53EC112B02F0FFFF53EC182B03F048
:104370009DFA94ED081B53EC112B02F0F5FF41EC74
:10438000100B53EC182B51EC100B03F08FFA94ED3B
:10439000061B53EC112B02F0E7FF53EC182B03F034
:1043A00085FA94ED040B53EC102B02F0DDFF41EC89
:1043B000100B53EC182B51EC100B03F077FA94ED23
:1043C000021B53EC112B02F0CFFF53EC182B03F020
:1043D0006DFA94ED001B53EC112B02F0C5FFBDEC00
:1043E000028B41EC100B70BD10B553EC102B51EC4F
:1043F000100B02F0B9FF41EC100B10BD00000000E3
:104400009FED050B10B553EC102B51EC100B03F086
:104410004DFA41EC100B10BD0000000000000070D0
:104420009FED050B10B553EC102B51EC100B03F066
:104430003DFA41EC100B10BD000000000000001020
:1044400030380A2801D2012070470020704700BF91
:10445000704700001CB501210220FEF785F9C0203D
:10446000009001208DF804008DF806008DF80700FB
:1044700002208DF8050069460648FDF755FC01202D
:10448000054908600549C1F89C024B2000F03EFB3D
:104490001CBD00000004024098824042008040425F
:1044A0001CB501210846FEF76FF901210220FEF735
:1044B0006BF901210820FEF767F901210846FEF794
:1044C00053F901210420FEF74FF902220621424848
:1044D000FDF772FC022207213F48FDF76DFCC0206A
:1044E000009002208DF804008DF8050000208DF862
:1044F000060001208DF8070069463748FDF714FCD7
:104500001020009001208DF8040002208DF8050095
:1045100000208DF8060001208DF8070069462E481E
:10452000FDF702FC1020009001208DF8040002200D
:104530008DF8050000208DF8060001208DF8070099
:1045400069462648FDF7F0FB012000908DF8040035
:1045500002208DF8050000208DF8060002208DF85D
:10456000070069461C48FDF7DFFB02200090012090
:104570008DF8040002208DF8050000208DF806005B
:1045800001208DF8070069461348FDF7CDFB042094
:10459000009001208DF8040002208DF80500002015
:1045A0008DF8060002208DF8070069460A48FDF7DD
:1045B000BBFB0820009001208DF8040002208DF83C
:1045C000050000208DF8060001208DF807006946DF
:1045D0000148FDF7A9FB1CBD000002400008024095
:1045E00000B587B001210420FEF7CEF8012108466E
:1045F000FEF7EAF801211920FEF7B6F81B208DF826
:10460000040001208DF805008DF806008DF80700E4
:1046100001A8FDF7CFFE1E208DF8040001208DF8C3
:1046200005008DF806008DF8070001A8FDF7C2FE11
:104630004FF42850059002208DF8180003208DF8C3
:10464000190000208DF81A0002208DF81B0005A922
:104650009048FDF769FB4FF40060059002208DF84B
:10466000180003208DF8190000208DF81A00022090
:104670008DF81B0005A98848FDF756FB012209218A
:104680008448FDF799FB01220B218248FDF794FB3A
:1046900001220D217F48FDF78FFB01220B217E486F
:1046A000FDF78AFBA7207D4908850020ADF80800AA
:1046B0000A20ADF80A000120ADF80C000020ADF88A
:1046C0000E00ADF8100002A97448FEF7FDFF0420AB
:1046D000ADF808000A20ADF80A000120ADF80C0082
:1046E0000020ADF80E00ADF8100002A96B48FEF7EF
:1046F000EBFF0820ADF808000A20ADF80A00012001
:10470000ADF80C000020ADF80E00ADF8100002A9C5
:104710006248FEF7D9FF0C20ADF808000A20ADF87A
:104720000A000120ADF80C000020ADF80E00ADF835
:10473000100002A95948FEF7C7FF01215748FEF7AC
:104740009AFF012202215548FEF7F5FF01220421BC
:104750005248FEF7F0FF012208215048FEF7EBFF18
:10476000012210214D48FEF7E6FF4FF470400590FE
:1047700002208DF8180003208DF8190000208DF814
:104780001A0002208DF81B0005A94548FDF7CCFA58
:1047900002220C214248FDF70FFB02220D21404866
:1047A000FDF70AFB02220E213D48FDF705FB022220
:1047B0000F213B48FDF700FB53203A4908800020B9
:1047C000ADF808000A20ADF80A000120ADF80C0091
:1047D0000020ADF80E00ADF8100002A931482838CD
:1047E000FEF772FF0420ADF808000A20ADF80A00B9
:1047F0000120ADF80C000020ADF80E00ADF810005F
:1048000002A928482838FEF75FFF0820ADF8080005
:104810000A20ADF80A000120ADF80C000020ADF828
:104820000E00ADF8100002A91E482838FEF74CFF14
:104830000C20ADF808000A20ADF80A000120ADF800
:104840000C000020ADF80E00ADF8100002A91548CC
:104850002838FEF739FF012112482838FEF70BFFF0
:10486000012202210F482838FEF765FF01220421AA
:104870000C482838FEF75FFF012208210948283834
:10488000FEF759FF0122102106482838FEF753FF92
:1048900007B000BD001002400000024000000140CF
:1048A000000C02402808004000B587B001214805EF
:1048B000FDF76AFF01210220FDF756FF4FF440701B
:1048C000019002208DF809008DF8080001208DF874
:1048D0000A0001A91648FDF727FA04220821144806
:1048E000FDF76AFA042209211148FDF765FA11481B
:1048F000FDF764FB0020ADF810004BF6FF70ADF83B
:1049000012003020ADF814004FF48060ADF81600AE
:104910000001ADF818000848039001210548FDF793
:1049200040FB03A90348FDF7AFFB07B000BD000043
:104930000004024000540040801A060010B56420B4
:1049400000F0C4F8AE20FDF797FD2020FDF794FDA0
:104950001020FDF791FDB020FDF78EFDC820FDF77A
:104960008BFD0020FDF788FD1020FDF785FD402020
:10497000FDF782FD8120FDF77FFDFF20FDF77CFD27
:10498000A120FDF779FDA620FDF776FDA820FDF713
:1049900073FD3F20FDF770FDA420FDF76DFDD320D2
:1049A000FDF76AFD0020FDF767FDD520FDF764FDEA
:1049B000F020FDF761FDD920FDF75EFD2220FDF717
:1049C0005BFDDA20FDF758FD1220FDF755FDDB20D9
:1049D000FDF752FD2020FDF74FFD8D20FDF74CFD2A
:1049E0001420FDF749FDAF20FDF746FDFDF728FD3A
:1049F00000210846FDF74EFD10BD000000B589B04E
:104A00000020ADF818001D4807900020ADF82000E8
:104A1000ADF81A0006A91A48FEF76EFF3020ADF86F
:104A20000400184803900120ADF806000220ADF8FC
:104A3000100001A91248FEF787FE08211048FEF772
:104A4000C1FE01A90E48FEF7C7FE08210C48FEF77B
:104A500015FF01210A48FEF7FFFD1D208DF800001B
:104A600002208DF8010001208DF802008DF803006E
:104A70006846FDF79FFC09B000BD000080969800D5
:104A800000040040404B4C0070B504460420FEF783
:104A9000B5F80C48047025464FF47A704543012060
:104AA000094908804FF0E020006940F002004FF013
:104AB000E021086108464561006940F00100086195
:104AC00070BD00001C0000201E00002070B50446D0
:104AD00002F03AF9012810D00B480088844206D32E
:104AE00009480088B4FBF0F5284601F0A1F9064812
:104AF0000088B4FBF0F100FB11444FF47A7104FB21
:104B000001F000F011F870BD1E000020002200210D
:104B100007E042F6E06200E0521E002AFCD14B1C86
:104B200099B28142F5DB704770B5034600224FF021
:104B3000E02675690D4E367803FB06F44FF0E0264B
:104B4000B16910E04FF0E026B06988420BD088428E
:104B500002D20E1A324402E02E1A0E4432440146AA
:104B6000A24200D300E0EDE700BF70BD1C000020B2
:104B700000BF054A128802F04002002AF9D0C2B2F2
:104B8000014B9A80704700000010014070B5044648
:104B90000D46002629462046FCF7F0FD0F20FFF7C2
:104BA000B5FFFDF7AFFE0646304670BD2DE9F0417A
:104BB0002DED028B06460F460025002406E03946FF
:104BC0003046FFF7E3FF0544601CC4B21E2CF6DB41
:104BD00008EE105A0025B8EE480AF3EE0E0A80EEF1
:104BE000201ABCEEC10A10EE100A80B2BDEC028B96
:104BF000BDE8F0811CB5FCF7A3FE074802210023A5
:104C00004FF49672CDE9001004A1074802F06CF849
:104C100001F018FB00201CBD140000205354415229
:104C2000545F5441534B0000855900082DE9F04171
:104C300005460E461C4807681C480068001D00F029
:104C400029FF50B91948006890F82C1001208840BD
:104C500017490968814316480160681C38B936B1A4
:104C600012480168091D134800F052FF1AE07C1930
:104C70000E4800684460BC4207D20C480168091D18
:104C80000D48006800F02AFF0CE008480168091D83
:104C90000A48006800F022FF09480068844201D2F7
:104CA00007480460BDE8F081600000204C0000204F
:104CB000640000200806002054000020500000205E
:104CC0007C00002010B5044600F02EFF2448006848
:104CD000401C234908602348006840B9214804600B
:104CE0000846006801280DD100F0F2F90AE01E48DC
:104CF000006838B91B480068C06AE16A884201D878
:104D00001848046019480068401C184908600846A3
:104D10000068606494F82C100120884014490968E8
:104D2000084313490860E16A01EB8101114A02EB73
:104D30008100211D00F0ECFE00F03EFF0A480068F3
:104D400068B108480068C06AE16A884207D24FF03B
:104D5000805009490860BFF34F8FBFF36F8F10BDBC
:104D60005C0000204C00002068000020780000203B
:104D7000640000203803002004ED00E010B500F0CE
:104D8000D3FE10480068D0B90F4800F097FE0F48D6
:104D900000F094FE0C480E4908600C480D4908606C
:104DA00000221021052001F057FC06490860084642
:104DB000006820B108A10348006800F0FDFF00F082
:104DC000FBFE10BD900000201C06002030060020D5
:104DD000880000208C000020546D725100000000FB
:104DE00070B523E001F00CFB1348006808B90120FE
:104DF00000E00020054602F03FF9BDB900F094FE46
:104E00000D48C068C468201D00F044FE0B480068CF
:104E1000401E0A4908600A480068401E08490860A8
:104E200000F0CAFE204600F060F800BF04480068A9
:104E30000028D7D170BD0000F40500205C000020E0
:104E40005800002070B504460D46206C70B1216CEE
:104E5000E0680844E0606168E068884201D3206847
:104E6000E0602846226CE168FBF7C4FB70BD2DE9C9
:104E7000F04104460F4615464FF00008A66B206C23
:104E800040B9206860BB606802F028F880460020C6
:104E9000606025E07DB93946226CA068FBF7AAFB6B
:104EA000216CA0680844A060D4E90110884217D39F
:104EB0002068A06014E03946226CE068FBF79AFB9A
:104EC000216CE068401AE0602168E068884203D203
:104ED000216C6068401AE060022D01D106B1761E97
:104EE000701CA0634046BDE8F08110B50446206BFD
:104EF00000F09EFE204600F09BFE10BD0146084AD1
:104F0000126812680AB9012200E000220A600A68E9
:104F100022B9034A1268D268106800E00020704786
:104F20008800002030B54FF4A043174800F0070474
:104F30002CB1C01D20F00700134C041B1B1B0246A4
:104F4000124C22600024114D6C60D018083820F0FB
:104F500007000F4C206000240D4D2D686C600C4D37
:104F60002D682C601146441A4C60094C24680C6072
:104F7000084D4C682C60084D4C682C604FF0004484
:104F8000064D2C6030BD0000440600209C0000202F
:104F9000A4000020AC000020A8000020B0000020E9
:104FA00000BFFFF71DFF064800680128F9D94FF040
:104FB000805004490860BFF34F8FBFF36F8FF0E755
:104FC0003803002004ED00E02DE9F04106460D46CF
:104FD00017469846069C0DB9246000E02760E663FA
:104FE00025640121204601F05DFC84F850800020FA
:104FF000A064BDE8F08100002DE9F05F82460F4615
:1050000090469B460A9E0C9C4FEA8801A522206B85
:10501000FBF735FBA8F10100216B01EB800929F0BA
:10502000070909F0070008B9012000E0002028B9AD
:1050300040F22B321BA122A0FBF7A6F9002507E0C6
:10504000795D04F134004155785D00B902E06D1CD2
:10505000102DF5D300BF002143200155202E00D391
:105060001F26E662E66400202065201D00F033FD67
:1050700004F1180000F02FFD2461C6F12000A061AA
:1050800064620020606584F858005A4651464846DC
:1050900000F056FC20600B9808B10B980460BDE846
:1050A000F09F00002E2E5C434F4E4649475C4672EF
:1050B000656552544F535C7461736B732E630000CB
:1050C0004572726F723A25732C25640D0A00000038
:1050D00010B5002407E004EB84010F4A02EB8100C5
:1050E00000F0ECFC641C202CF5D30C4800F0E6FC2E
:1050F0000B4800F0E3FC0B4800F0E0FC0A4800F02D
:10510000DDFC0A4800F0DAFC04480949086004485C
:105110000849086010BD000038030020B8050020D1
:10512000CC050020E0050020F40500200806002042
:10513000500000205400002010B50146164800E041
:10514000006803688B42FBD30246436813448B42DA
:1051500004D143684C682344436001460A464B68C7
:1051600013440468A34211D10C4C03682468A34281
:1051700008D04B680468646823444B6003681B686C
:105180000B6005E0054B1B680B6001E003680B60DA
:10519000884200D0016010BD9C000020A4000020C7
:1051A0002DE9F04104460D4616461F464FF0000813
:1051B00065602461B5420CD8F01BA169884202D316
:1051C0004FF0010811E0211D0948006800F086FC3D
:1051D0000BE0BE4204D2BD4202D34FF0010804E00E
:1051E000211D0448006800F079FC4046BDE8F081CC
:1051F0008C0000208800002070B5054600F094FC6B
:10520000A86B08B9012400E0002400F0D5FC20467A
:1052100070BD70B5054600F087FCA86BE96B88424D
:1052200001D1012400E0002400F0C6FC204670BD3E
:105230002DE9F3410D460098846C00272CB940F607
:10524000CE121AA120A0FBF79FF8A06BE16B884259
:1052500001D2012000E0002028B940F6CF1213A1AE
:1052600019A0FBF791F8A06BE16B88421BD294F96F
:1052700045602A4669462046FFF7F9FD0746701C3F
:1052800060B9606A08B9012000E0002050B904F15B
:10529000240001F093FE28B1012703E0701C40B206
:1052A00084F8450000BF3846BDE8FC812E2E5C43E3
:1052B0004F4E4649475C4672656552544F535C7188
:1052C000756575652E6300004572726F723A2573BD
:1052D0002C25640D0A000000F8B505460F4613485A
:1052E0000068C068C468201D00F0D4FBE069012894
:1052F00018D1A06941192B463A462046FFF750FFC6
:1053000080B1002003462A4601460090204601F065
:1053100083FF06462EB94FF4027205A10BA0FBF7DE
:1053200033F800BF2046616A8847F8BD8800002036
:105330002E2E5C434F4E4649475C4672656552547B
:105340004F535C74696D6572732E63004572726FA2
:10535000723A25732C25640D0A000000F0B587B061
:1053600070E0039800280CDA04AE2EB940F2E72270
:105370003AA141A0FBF708F8D6E90020B1689047B0
:1053800000BF039800285DDB059C606908B9012017
:1053900000E0002010B9201D00F07CFB02A800F006
:1053A000C9F8054603980A284AD2DFE800F0090543
:1053B000072C2E4506082D2F00BF00BF00BF00BFE1
:1053C0000498A269811803462A462046FFF7E8FEA2
:1053D000C0B12046616A8847E069012812D10020E7
:1053E00000900498A169421800231946204601F054
:1053F00013FF07462FB940F2213218A11EA0FAF779
:10540000C3FF00BF1DE000BF1BE000BF0498A06108
:10541000A06908B1012000E0002028B94FF44E72C5
:105420000EA115A0FAF7B0FFA06941192B462A4634
:105430002046FFF7B5FE04E0204600F0F9FB00E04F
:1054400000BF00BF00231A4603A90F48006801F0FF
:1054500041F9002885D107B0F0BD00002E2E5C4335
:105460004F4E4649475C4672656552544F535C74D3
:10547000696D6572732E63004572726F723A25739F
:105480002C25640D0A00000090000020F8B50546A8
:105490000C4600F0B5FF684600F04CF80646009850
:1054A00020BB44B9B54206D801F0E6FD3146284696
:1054B000FFF712FF1CE03CB10E480068006808B915
:1054C000012000E000200446A91B22460A4800688B
:1054D00000F088FC01F0D0FD50B94FF08050074932
:1054E0000860BFF34F8FBFF36F8F01E001F0C4FD81
:1054F000F8BD00008C0000209000002004ED00E0CA
:105500000A490968096809B9012100E0002121B1AF
:105510004FF0FF31064A116006E004490968C96886
:10552000C868034A416811607047000050000020BD
:105530007C00002070B5044601F016FC05460748C3
:105540000068854204D200F00BF80120206001E0E1
:105550000020206001480560284670BD98000020AA
:105560002DE9F8432DE021480068C06805681F4810
:105570000068C068C468201D00F08CFA2046616A8B
:105580008847E06901281CD1A0694619AE4207D9B5
:1055900066602461211D1548006800F09FFA10E044
:1055A000002003462A4601460090204601F034FEC2
:1055B00007462FB940F292320DA114A0FAF7E4FE8B
:1055C00000BF0A480068006808B9012000E0002018
:1055D0000028C8D00548D0F800801048006803496A
:1055E00008600E48C0F80080BDE8F88388000020FD
:1055F0002E2E5C434F4E4649475C467265655254B9
:105600004F535C74696D6572732E63004572726FDF
:10561000723A25732C25640D0A0000008C000020CE
:105620000C480068401C08B9012000E0002028B99F
:1056300040F20F1208A115A0FAF7A6FE00BF5020F5
:1056400080F31188BFF34F8FBFF36F8F00BF00BF90
:10565000FEE70000B40000202E2E5C434F4E46496A
:10566000475C4672656552544F535C706F7274614B
:10567000626C655C525644535C41524D5F434D34FD
:10568000465C706F72742E63000000004572726F8A
:10569000723A25732C25640D0A00000070B505468A
:1056A00000262C462DB940F282620EA114A0FAF712
:1056B0006BFE17496069884201D1012000E000209B
:1056C00070B11449A06A884201D1012000E0002095
:1056D00030B9A06A08B9012000E0002000B101261D
:1056E000304670BD2E2E5C434F4E4649475C467295
:1056F000656552544F535C7461736B732E63000085
:105700004572726F723A25732C25640D0A000000F1
:1057100008060020E005002008B500BF6846FFF736
:10572000EDFB044620460099FFF7B0FEFFF716FE9A
:10573000F4E770B5044600F0F7F994F945501AE023
:10574000A06C38B100212046FFF772FD88B100F04F
:1057500037FC0EE0606A08B9012000E0002038B98B
:1057600004F1240001F02AFC18B100F029FC00E04B
:1057700003E0681E45B2002DE2DC00BFFF2084F884
:10578000450000F019FA00F0CFF994F9445010E008
:10579000206908B9012000E0002048B904F1100098
:1057A00001F00CFC08B100F00BFC681E45B200E0F3
:1057B00001E0002DECDC00BFFF2084F8440000F085
:1057C000FBF970BD2DE9F04104464FF0000800F0F0
:1057D00017FE3E48006808B9FFF7A4FB3C48006884
:1057E000204000285FD1A4B1083404F0070080B144
:1057F00004F00700C0F10800044404F0070008B9F1
:10580000012000E0002020B9BF2232A13DA0FAF71C
:10581000BBFD002C47D03F480068844243D83E4E31
:105820003046056801E02E462D686868A04202D225
:1058300028680028F7D125480068854233D03068B1
:1058400000F10808286830606868001B102813D928
:105850002F1907F0070008B9012000E0002020B947
:10586000EC221CA127A0FAF78FFD6868001B786066
:105870006C603846FFF760FC264968680968081ABA
:10588000244908600846006824490968884203D210
:1058900020480068214908600D4968680968084384
:1058A00068600020286001F0E7FB08F0070008B9F5
:1058B000012000E0002028B94FF4967205A111A044
:1058C000FAF762FD4046BDE8F0810000A400002028
:1058D000B00000202E2E5C434F4E4649475C467276
:1058E000656552544F535C706F727461626C655C95
:1058F0004D656D4D616E675C686561705F342E63E8
:10590000000000004572726F723A25732C25640DF9
:105910000A000000A80000209C000020AC0000202D
:105920000648006830B10549096801F15000096D69
:10593000491C016001480068704700004C000020CD
:10594000001F4FF080730360001F21F0010303600C
:10595000001F054B036014380260001F6FF0020344
:1059600003602038704700002156000810B50A2156
:105970005420FDF75DFB00200149088010BD0000A8
:10598000140100201CB5044600F0CEF800200421CC
:1059900003464FF4FA72CDE900100BA10B4801F059
:1059A000A3F90B48052100234FF4FA72CDE900104A
:1059B00008A10B4801F098F90A48006800F076FA4F
:1059C00000F0FAF81CBD000046534D00691B0008AA
:1059D00018000020496E666F726D6174696F6E0009
:1059E000112200081400002010B588B004460121DF
:1059F0000846FCF7B9FE01211020FCF7E5FE07225E
:105A000009212248FCF7D8F907220A211F48FCF790
:105A1000D3F94FF4C060069002208DF81C008DF879
:105A20001D0000208DF81E0001208DF81F0006A922
:105A30001648FCF779F902940020ADF80C00ADF897
:105A40000E00ADF81000ADF814000C20ADF81200F7
:105A500002A90F48FEF726F801210D48FDF7C7FF00
:105A6000012240F225510A48FDF7F7FF25208DF865
:105A7000040003208DF805008DF8060001208DF844
:105A8000070001A8FCF796FC08B010BD000002401A
:105A90000010014001460A69D1E901309860D1E95E
:105AA000010358605068884201D188685060002026
:105AB00008611068401E10601068704700F108010E
:105AC00041604FF0FF31816000F10801C160016168
:105AD00000210160704700210161704710B5024646
